:020000040800F2
:10000000602A0020DD010008913100082510000859
:100010006531000889090008195000080000000037
:10002000000000000000000000000000ED48000893
:10003000090F0008000000006B020008014A0008D8
:10004000F7010008F7010008F7010008F7010008B0
:10005000F7010008F7010008F7010008F7010008A0
:10006000F7010008F7010008F7010008F701000890
:10007000F7010008F7010008F7010008F701000880
:10008000F7010008F7010008F7010008F701000870
:10009000E14F0008F7010008F7010008F701000828
:1000A000F7010008F7010008F7010008F701000850
:1000B000F70100087D4A0008AD4A0008F701000872
:1000C000F7010008F7010008F7010008F701000830
:1000D000F7010008A14C0008314D0008F7010008A5
:1000E000F7010008F7010008F701000800F002F826
:1000F00000F065F80AA090E8000C82448344AAF15D
:100100000107DA4501D100F05AF8AFF2090EBAE85A
:100110000F0013F0010F18BFFB1A43F0010318473B
:100120007C5300009C5300000A444FF0000C10F870
:10013000013B13F0070408BF10F8014B1D1108BF65
:1001400010F8015B641E05D010F8016B641E01F805
:10015000016BF9D113F0080F1EBF10F8014BAD1C55
:100160000C1B09D16D1E58BF01F801CBFAD505E073
:1001700014F8016B01F8016B6D1EF9D59142D6D3CD
:10018000704700000023002400250026103A28BFF5
:1001900078C1FBD8520728BF30C148BF0B607047F9
:1001A000642900F0CD80782900F03181732900F0B6
:1001B000A183002070471FB51FBD10B510BD00F012
:1001C000B3FB1146FFF7F7FF04F0D2FF00F0D1FBBD
:1001D00003B4FFF7F2FF03BC04F027FF0948804790
:1001E00009480047FEE7FEE7FEE7FEE7FEE7FEE719
:1001F000FEE7FEE7FEE7FEE704480549054A064B31
:10020000704700001D4A0008ED000008602400202F
:10021000602A00206026002060260020EFF3108076
:1002200072B6704780F310887047204C204D2560CF
:100230004FF0000484F309881E4C4FF0010525702F
:100240001D4C4FF08055256062B6FEE730B41A4C65
:100250004FF08055256030BC704730B4164C4FF0DD
:100260008055256030BC704700BF72B6EFF309803F
:1002700028B1203880E8F00F10490968086000B5FF
:100280000F4880475DF804EB0E480F490A7802706A
:100290000A480E490A680260106890E8F00F2030A2
:1002A00080F309884EF0040E62B6704720ED00E03E
:1002B0000000FFFF9E01002004ED00E0A4010020EB
:1002C000B53C00089301002094010020AC010020FF
:1002D000704700000FB4044910B503AA029800F05B
:1002E0000DFB10BC5DF814FBF401002070B50C464A
:1002F0000546012A05D02878800600D5EA69002342
:1003000002E0012305E05B1C934202D2E05C00287E
:10031000F9D1A869E618C01AA861286A18442862A9
:100320002846AFF3008004E0D5E9012114F8010B61
:100330009047B442F8D32846AFF3008070BD000068
:100340002DE9F0410646002410687529314616A5AE
:1003500010D0AFF30080002802DA404213A507E076
:1003600031688A0701D512A502E0490704D511A515
:10037000012401E0AFF3008000210A2206F12407E6
:1003800009E0B0FBF2FCB0FBF2F302FB1C003030E2
:1003900078541846491C0028F3D123462A46304693
:1003A000BDE8F04100F022BA000000002D0000007E
:1003B0002B00000020000000F0B40D460188090564
:1003C00002D5214C7C4402E01F4C7C440E340021B9
:1003D00000F1240608E002F00F071209E75D42EA87
:1003E00003721B097754491C52EA0307F3D10278C0
:1003F0000023120704D5702D06D009B10223113451
:100400002246F0BC00F0F2B901231034F8E770B5D1
:1004100004460D4621461068AFF300800246294687
:100420002046BDE870400023C6E7D21D22F0070336
:10043000D3E90023C0E70368126843F02003036098
:100440000823C3610023B7E79B5000002DE9F05F4C
:10045000894604464FF0000ADFF874B1FB44C0F847
:1004600020A02046E1688847002874D0252806D0BF
:10047000D4E901219047206A401C2062F1E7002660
:100480005F462046E16888472028054607DB312D76
:1004900005D2781910F8200C08B10643F1E7B0072F
:1004A00001D526F00406C4F81CA00027C4F818A043
:1004B0002A2D09D0284604F0B1FD38B304EB870893
:1004C000303DC8F8185019E059F8041B204604EBD9
:1004D00087029161E1688847012F054618D1E069DC
:1004E000002820DA26F020061DE0D8F8180000EBDE
:1004F000800005EB40003038C8F818002046E1685D
:100500008847054604F08AFD0028EED1012F0AD065
:100510002E2D08D12046E16888477F1C0546022F12
:1005200046F02006C4DBA069002803DA404246F00A
:100530000106A061F00701D026F010066C2D0BD04B
:10054000682D09D04C2D39D06A2D35D0742D35D079
:100550007A2D33D016E038E0E1682F4620468847F0
:10056000B842054609D16C2F26D04FF48060E1686F
:10057000064320468847054604E06C2F1AD04FF406
:10058000807006430DB3A5F14100192802D820352B
:1005900046F400664A462946204626604E46FFF746
:1005A000FFFD80B101280BD0F61D26F0070000F1F9
:1005B000080956E74020E4E78020D8E70020D6E786
:1005C00006F104094DE7284652E7206ABDE8F09F8E
:1005D0002B500000032A40F2308010F0030C00F092
:1005E000158011F8013BBCF1020F624498BF11F86D
:1005F00001CB00F8013B38BF11F8013BA2F1040226
:1006000098BF00F801CB38BF00F8013B11F003039D
:1006100000F02580083AC0F0088051F8043B083A01
:1006200051F804CBA0E80810F5E7121D5CBF51F8A3
:10063000043B40F8043BAFF30080D20724BF11F81D
:10064000013B11F801CB48BF11F8012B24BF00F882
:10065000013B00F801CB48BF00F8012B704710B5F3
:10066000203AC0F00B80B1E81850203AA0E81850AA
:10067000B1E81850A0E81850BFF4F5AF5FEA027C6B
:1006800024BFB1E81850A0E8185044BF18C918C0DA
:10069000BDE810405FEA827C24BF51F8043B40F87B
:1006A000043B08BF7047D20728BF31F8023B48BF60
:1006B00011F8012B28BF20F8023B48BF00F8012B9E
:1006C000704702F0FF0343EA032242EA024200F0CD
:1006D00002B84FF000020429C0F0128010F0030CA1
:1006E00000F01B80CCF1040CBCF1020F18BF00F825
:1006F000012BA8BF20F8022BA1EB0C0100F00DB8D4
:100700005FEAC17C24BF00F8012B00F8012B48BF31
:1007100000F8012B70474FF0000200B513469446D5
:100720009646203922BFA0E80C50A0E80C50B1F149
:100730002001BFF4F7AF090728BFA0E80C5048BF5D
:100740000CC05DF804EB890028BF40F8042B08BFFB
:10075000704748BF20F8022B11F0804F18BF00F8F7
:10076000012B70474FF0013C50F8042B51F8043B2B
:100770009A4221D1A2EB0C03934313EACC1317D175
:1007800050F8042B51F8043B9A4215D1A2EB0C030C
:10079000934313EACC130BD150F8042B51F8043BCC
:1007A0009A4209D1A2EB0C03934313EACC13DBD09A
:1007B0004FF00000704700BFD01A01BAB1FA81F1C2
:1007C00001F0180122FA01F0CB40C1F12001DBB2A7
:1007D000C0B2C01A2CFA01F3D11A914311EAC31125
:1007E000E6D1704770477047704770472DE9F04772
:1007F0000D4699469246044600F124080168880691
:1008000004D5E06921F01001216000E00120A84238
:1008100001DD471B00E00027A1697A1902EB0900FE
:10082000081AA0612078C00602D42046AFF30080E9
:10083000002608E0D4E901211AF806009047206A52
:10084000401C761C20624E45F4DB2078C0060AD599
:100850002046AFF3008006E0D4E901213020904724
:10086000206A401C2062381EA7F10107F4DC07E073
:10087000D4E9012118F805009047206A401C206245
:10088000281EA5F10105F3DC2046AFF30080207897
:10089000000602D50220BDE8F0870120FBE700003A
:1008A00001694A1C02610878704700B58FB0CDE934
:1008B00001310021059105497944CDE90310114624
:1008C0006846FFF7C3FD0FB000BD0000E5FFFFFF66
:1008D00010B5436913B1AFF3008001E0FFF706FDE7
:1008E000012010BD127800F124010A7000224A7024
:1008F0000122EDE711684FF0FF32E9E7074B70B5D1
:100900000D467B44FFF7D1FF0446284600F008F867
:1009100010B14FF0FF3070BD204670BD4F48000051
:10092000007B00F080007047754600F029F8AE4665
:1009300005006946534620F00700854618B020B5EB
:10094000FFF75AFCBDE820404FF000064FF00007CB
:100950004FF000084FF0000B21F00701AC46ACE867
:10096000C009ACE8C009ACE8C009ACE8C0098D46D4
:1009700070470446AFF300802046FFF729FC0000D3
:1009800000487047FC23002000BFFEE710B5044676
:100990000B48844209D10121480603F00DFF0021D4
:1009A0004FF0007003F008FF08E00121880603F013
:1009B00003FF00214FF0806003F0FEFE10BD000039
:1009C0000064004010B50021837A012202FA03F18D
:1009D0003D4A126842F001023B4B1A603A4A1C320F
:1009E00012688A43384B1C331A60027BCAB9364AF4
:1009F0000C3212688A43344B0C331A604288C38825
:100A000042EA0343304A4032847A42F83430028862
:100A1000838842EA03432C4A4032847A02EBC402C0
:100A20005360027B012A19D1274A0C3212680A430B
:100A3000254B0C331A604288038842EA0343224A5A
:100A40004032847A42F83430C288838842EA0343D1
:100A50001D4A4032847A02EBC4025360C27A3AB92A
:100A6000194A121D12688A43174B1B1D1A6006E0B3
:100A7000154A121D12680A43134B1B1D1A60028986
:100A800032B9114A143212688A430F4B14331A6078
:100A90000289012A06D10C4A143212680A430A4B11
:100AA00014331A60427B012A06D1074A1C321268AD
:100AB0000A43054B1C331A60034A126822F00102F4
:100AC000014B1A6010BD0000006600400146002086
:100AD0008A6902F0700070471AB143690B434361A1
:100AE00002E043698B434361704730B50246002002
:100AF0000023146824F002041460146844F0010414
:100B0000146000E05B1C546804F001041CB94FF64B
:100B1000FF74A342F6D1546804F001040CB900201C
:100B20006CE08C79012C04D1146844F080041460CA
:100B300003E0146824F080041460CC79012C04D103
:100B4000146844F04004146003E0146824F0400486
:100B500014600C7A012C04D1146844F02004146051
:100B600003E0146824F0200414604C7A012C04D1B2
:100B7000146844F01004146003E0146824F01004B6
:100B800014608C7A012C04D1146844F008041460B9
:100B900003E0146824F008041460CC7A012C04D11A
:100BA000146844F00404146003E0146824F004049E
:100BB00014608C78A407CD7844EA05640D7944EA82
:100BC00005444D7944EA05540D886D1E2C43D461CB
:100BD000146824F001041460002300E05B1C5468D6
:100BE00004F001041CB14FF6FF74A342F6D154681F
:100BF00004F001040CB1002000E0012030BD10B56C
:100C000000F5D87303EB01131B6803F004031372A0
:100C1000137A53B900F5D87303EB01131B6840F244
:100C2000FF7404EA5353136009E000F5D87303EB33
:100C300001131B686FF0604404EAD303536000F5AE
:100C4000D87303EB01131B6803F00203537200F522
:100C5000D87303EB01135B6803F00F03937200F585
:100C6000D87303EB01135B681B0AD37400F5D873C8
:100C700003EB01139B68D37200F5D87303EB0113E8
:100C80009B681C0A147300F5D87303EB01139B686F
:100C90001C0C547300F5D87303EB01139B681B0EF7
:100CA000937300F5D87303EB0113DB68D37300F57E
:100CB000D87303EB0113DB681C0A147400F5D873B6
:100CC00003EB0113DB681C0C547400F5D87303EBC1
:100CD0000113DB681B0E937421B9C36843F0200332
:100CE000C36003E0036943F02003036110BD0021EA
:100CF0008171C171017241728172C1728170C17062
:100D0000032101710221417101210180704710B559
:100D100002460B460024002102E0505C0444491CBA
:100D20009942FAD3E0B210BD10B502460B4600243A
:100D3000002102E0505C0444491C9942FAD3E0B21D
:100D400010BD10B502460B460024002102E0505CA5
:100D50000444491C9942FAD3E0B210BD21B10268A3
:100D600042F00102026004E002684FF6FE731A408E
:100D70000260704701684FF6FE7211400160002169
:100D8000016041608160C1604B49884208D14A4995
:100D90000839496841F00F01474A083A51608AE032
:100DA00045491431884208D143490839496841F01E
:100DB000F001414A083A51607DE03F4928318842BC
:100DC00008D13D490839496841F470613A4A083A06
:100DD000516070E038493C31884208D136490839C1
:100DE000496841F47041344A083A516063E032493D
:100DF0005031884208D130490839496841F470219E
:100E00002D4A083A516056E02B496431884208D196
:100E100029490839496841F47001274A083A516064
:100E200049E025497831884208D123490839496881
:100E300041F07061204A083A51603CE01F49884205
:100E400006D1011F096841F00F01021F116032E055
:100E50001A491431884208D11849091F096841F01C
:100E6000F001164A121F116025E01449283188420A
:100E700008D11249091F096841F470610F4A121F15
:100E8000116018E00D493C31884208D10B49091F17
:100E9000096841F47041094A121F11600BE00749CB
:100EA0005031884207D10549091F096841F4702172
:100EB000024A121F116070470800024008040240F5
:100EC0000146486880B2704710B50022026847F6B4
:100ED000F0739A430C6A8B6823430C6923434C6973
:100EE00023438C692343CC6923434C6A23438C6A94
:100EF00023431A430260CB6843600B6883604B68EE
:100F0000C36010BD4160704770472DE9F041024653
:100F100000250026002000230024002791F803C0AC
:100F20000CF00F0591F803C00CF0100CBCF1000F91
:100F300003D091F802C04CEA050591F800C0BCF15D
:100F4000000F31D0146800202BE04FF0010C0CFA98
:100F500000F3B1F800C00CEA03069E4220D18300E2
:100F60004FF00F0C0CFA03F7BC4305FA03FC4CEAF4
:100F7000040491F803C0BCF1280F06D14FF0010C16
:100F80000CFA00FCC2F814C00AE091F803C0BCF1EE
:100F9000480F05D14FF0010C0CFA00FCC2F810C04C
:100FA000401C0828D1D31460B1F800C0BCF1FF0F79
:100FB00034DD546800202EE000F1080C4FF00108E9
:100FC00008FA0CF3B1F800C00CEA03069E4221D1E6
:100FD00083004FF00F0C0CFA03F7BC4305FA03FC37
:100FE0004CEA040491F803C0BCF1280F05D100F1CC
:100FF000080C08FA0CF8C2F8148091F803C0BCF190
:10100000480F07D100F1080C4FF0010808FA0CF85E
:10101000C2F81080401C0828CED35460BDE8F0818F
:101020000161704700BFFEE70146C1F30F20704722
:1010300008490968097841F00201064A12681170EE
:10104000417B044A1268D1700021034A1268517032
:10105000704700008800002084000020C27A017BD5
:1010600002EB0121034A126891840021024A1268AE
:10107000917270478800002084000020C27B017CB0
:1010800002EB0121034A126811840021024A12680E
:10109000117270478800002084000020C37B027C0E
:1010A00003EB0223427C03EB0243827C03EB0261ED
:1010B0000A4A12685161C37A027B03EB0223427B26
:1010C00003EB0243827B03EB0261044A1268116165
:1010D0000022034B1B689A717047000088000020B3
:1010E00084000020C37B027C03EB0223427C03EBE1
:1010F0000243827C03EB02610A4A12689160C37A60
:10110000027B03EB0223427B03EB0243827B03EB74
:101110000261044A1268D1600022034B1B685A71B5
:10112000704700008800002084000020017B044AF2
:10113000126811710021034A1268D17070470000D3
:101140008800002084000020827BC17B02EB01210B
:10115000034A1268D1800021024A126891707047D8
:101160008800002084000020017B044A126851712D
:101170000021034A126811717047000088000020A6
:101180008400002070470000C37B027C03EB022335
:10119000427C03EB0243827C03EB02610A4A126841
:1011A000D161C37A027B03EB0223427B03EB024350
:1011B000827B03EB0261044A126891610022034BB7
:1011C0001B68DA717047000088000020840000204E
:1011D000C27A017B02EB0121034A1268518400218B
:1011E000024A126851727047880000208400002073
:1011F0000A490968097841F00101084A126811702A
:10120000817C064A126851700021054A12681170EB
:10121000817B8909014A126891707047880000201B
:1012200084000020027B417B02EB01210A4A126804
:10123000D184827BC17B02EB0121074A12681185B0
:10124000027C417C02EB0121034A12685185002196
:10125000024A1268D1727047880000208400002082
:1012600070B504460D46204600F014F96079A17966
:10127000884204D1204600F017F9002070BD627941
:1012800002EB8202A06800EB820114222846FFF7DD
:10129000E6F96079401C217990FBF1F201FB120024
:1012A0006071204600F000F90120E7E72DE9F041E8
:1012B00004460E4615461F461CB116B1012D00DB33
:1012C0001FB94FF0FF30BDE8F0812571002060713B
:1012D000A071681EE071A6603946204600F0B2F8A1
:1012E000F1E7000070B504460D46204600F0D2F844
:1012F000A079401C217990FBF1F201FB1200617989
:10130000884209D100BF10A0FEF7E4FF00BF2046CD
:1013100000F0CAF8012070BDA27902EB8202A16838
:1013200001EB820014222946FFF799F9A079401CAD
:10133000217990FBF1F201FB1200A071204600F030
:10134000B3F80020E7E700005B4552525D0966757F
:101350006C6C200D0A00000010B510A0FEF7BAFF5B
:10136000144800F0F3F8144800F0E0F8134800F0D7
:10137000E5F8134800F028FB00F098F900F088FA2F
:10138000104800F035FA01F033FE0F4801F0EAFD95
:1013900001F056FC01F062FD002010BD4A7A417058
:1013A000704D61696E496E69742073746172742046
:1013B0000D0A0000E52E00088D190008E91C000840
:1013C000B517000891300008512D000810B500BF76
:1013D000034904A0FEF77EFF00BF00F0E7FF10BD49
:1013E000405300085B5359535445524D5D092573D2
:1013F000200A000010B500BF034904A0FEF76AFFF1
:1014000000BF00F0F3FF10BD345300085B53595385
:101410005445524D5D092573200A000070B50446FD
:101420000D460026FEF7FAFE06462946204600F045
:10143000B2FE3046FEF7F6FE002070BD10B500F09B
:101440002BFF10BD7CB504460D4601A9284601F0CE
:101450000DFB9DF80400694601F062FF20602068E2
:1014600050B900BF9DF80020044905A0FEF732FFE7
:1014700000BF4FF0FF307CBD0020FCE71C5300088C
:101480005B4552525D0925732020657272202564E8
:10149000200D0A0038B504466A460021206801F094
:1014A00089FF9DF8000038BD10B50446206802F0A1
:1014B0009DF810BD10B50446002002F08DF92060A3
:1014C000206810B94FF0FF3010BD20680078032865
:1014D0000AD000BF20680278044905A0FEF7FAFE92
:1014E00000BF4FF0FF30EFE70020EDE72853000882
:1014F0005B4552525D092573202074797065202563
:1015000064200D0A0000000010B50446206802F0B7
:10151000FFF9002010BD38B504460D466A4629463D
:10152000206802F07FF99DF8000038BD01460248AE
:10153000016000207047000054010020014602486D
:101540000160002070470000600100200146024851
:1015500001600020704700005C0100202DE9F0418F
:1015600086B080460C4615461E462146204601F0B0
:10157000CDFA002804DA4FF0FF3006B0BDE8F08164
:10158000002701220023D4E90901CDE90332CDE986
:101590000101A08D009094F82E3031462846226A31
:1015A00002F008FA074617B14FF0FF30E5E70020D8
:1015B000E3E70020704770B505460C46E1B22846C7
:1015C00001F06EF8002070BD70B505460C4605B1FF
:1015D00014B94FF0FF3070BD55202070102060709E
:1015E00001F0CCFDA070287A40B1687A00F00F00BD
:1015F00040F01000E0706868606005E0687A00F014
:101600000F00E07028686060D5F80B00A060D5F886
:101610000F00E06010212046FFF793FB20740020AC
:10162000D9E7000010B500200E49087024210E48AB
:10163000FFF771F80DA10C482030FFF703FF40B110
:1016400000BF0C490CA0FEF745FE00BF4FF0FF3075
:1016500010BD00BF042224210AA0FEF73BFE00BFFC
:101660000020F5E790000020B00D00207561727435
:1016700063616E00C45200085B4552525D092573D8
:10168000200D0A005B494E464F5D0943616E32559D
:10169000617274496420256420204A7A5F4D757414
:1016A0006578202564200D0A0000000010B51D4853
:1016B000FFF700FF04463CB100BF1B491BA0FEF72B
:1016C00009FE00BF204610BD1EA314222049214858
:1016D000FFF7ECFD40B100BF13491FA0FEF7FAFD74
:1016E00000BF4FF0FF30EEE700F07AFA0023214A06
:1016F00021492248FFF732FF04463CB100BF0A49A6
:101700001FA0FEF7E7FD00BF2046DCE700BF1A4838
:1017100090F82E20044921A0FEF7DCFD00BF002038
:10172000D1E70000040000209E5100085B455252A2
:101730005D092573204A7A53656D4372656174654E
:10174000200D0A0063616E70617273650000000015
:10175000FC0100208C0300205B4552525D0925737B
:10176000204A5A5F5175657565496E6974200D0A86
:1017700000000000011800081000002000000020F8
:101780005B4552525D092573204A7A54687265613F
:1017900064437265617465200D0A00005B494E491F
:1017A000545D092573207072696F202564200D0A2D
:1017B0000000000010B5044621460A48FFF792FDDC
:1017C00010B1022001F04AF90748007840B9012021
:1017D000054908700548FFF797FE022000F05EF902
:1017E00010BD00008C030020090000200400002030
:1017F0000146024801600020704700000C000020F4
:1018000010B586B0044600BF14A0FEF763FD00BF0C
:101810001EE000211948FFF77EFE1948007800B944
:1018200017E00DE001A800F0EFF9029800F044F98C
:1018300030B11448006818B101A8124909688847F6
:1018400001A91148FFF70CFD0028EBD10F490870E2
:10185000DFE700BFFFF7ADFE06B010BD5B494E49A4
:10186000545D094A7A5F43616E50617273655F54DB
:1018700061736B46756E630D0A0000000400002062
:10188000080000200C0000208C030020090000202C
:1018900038B5002000901A48FFF70CFE04460CB142
:1018A000204638BD00F076FB684600F021FB054677
:1018B0009DF800102846FFF7B1FD0023114A124998
:1018C0001248FFF74BFE04460CB12046E9E714210D
:1018D0000F48FEF720FF01200E49087000200E4936
:1018E000087001200D49086000BF074890F82E20BD
:1018F0000B490CA0FEF7EEFC00BF0020D1E7000072
:1019000044000020F5190008540000204000002089
:1019100098030020480000204900002050000020CB
:10192000C35100085B494E49545D0925732070720C
:10193000696F202564200D0A0000000038B50020E2
:101940000090684600F0E4FA044614B94FF0FF3006
:1019500038BD00F0C7FA054600F03EF89DF80010CB
:101960002046FFF75BFD00F003F80020F0E70000E1
:1019700010B50548006818B9FFF73CFD024908603A
:101980000148006810BD00005000002010B504465A
:101990000A48007868B901200849087000F07EF80C
:1019A000142221460648FEF75AFE0648FFF7ACFD12
:1019B00002E0012001F052F810BD000049000020B3
:1019C00098030020440000200146024801600020E6
:1019D000704700004C00002010B505480068012841
:1019E00003D1FFF7F3FC024908600148006810BD0D
:1019F0005000002070B50646002400BF13A0FEF77B
:101A000069FC00BF1DE0002018490870002118483B
:101A1000FFF781FD05463DB91648006860B11648DC
:101A200014490968884707E0FFF708FD0446224685
:101A3000124913A0FEF74EFC1748007800B901E0E8
:101A400000BFE0E700BFFFF7B4FD70BD5B494E4942
:101A5000545D094A7A5F43616E526561645F546107
:101A6000736B46756E630D0A00000000490000208C
:101A7000440000204C00002098030020AF510008D3
:101A8000257320206572726F72636F646520256410
:101A90002020200D0A00000048000020024909789B
:101AA0008143014A117070478F000020014800787F
:101AB000704700008F00002070B505460024002606
:101AC0000F48FFF7E7FC0E4820380078012812D1B4
:101AD00000BF0AE00A481C3830F81400C5F30F2193
:101AE000884201D1012605E0641C05482038807831
:101AF000A042EFDC00BF0248FFF7D6FCF0B270BD99
:101B0000D00D002010B50446552020702F206070A5
:101B100001F02AFBA070314800680078012804D148
:101B20002E4800684078E0700BE02C480068007890
:101B3000022804D129480068C078E07001E0FF2045
:101B4000E07026480068807884F82C0023480068FC
:101B5000C088A080214800680079A0711F480068F3
:101B60004079E0711D4800688068A0601B480068EB
:101B7000C068E060194800688069A0611748006883
:101B8000C069E06115480068006920611348006879
:101B90004069606111480068808CA0840F4800682B
:101BA000008C20840D480068408C60840B480068DD
:101BB000C08CE08409480068008D208507480068D3
:101BC000408D6085FFF772FF84F82D002F2120469D
:101BD000FFF79DF884F82F00002010BD880000203A
:101BE00010B507480021016041608160FF222C216F
:101BF0000448FEF766FD00200249087010BD000091
:101C0000AC030020B80300202DE9F0410446002574
:101C100066683046FFF708FA07464FF6C161781A42
:101C20008F423ED016DC4FF20401A7EB01008F4239
:101C300033D009DCB7F5704F23D06FF470403844CF
:101C400018B3022849D124E0A0F6686088B10328BF
:101C500043D12EE0282828D006DC02282DD01F28CA
:101C600033D0272839D12CE0292832D0302834D15C
:101C700003E02046FFF7BCFA31E02046FFF7D8F931
:101C80002DE02046FFF77EFA29E02046FFF74EFAC6
:101C900025E02046FFF768FA21E02046FFF754FAD6
:101CA0001DE02046FFF71EFA19E02046FFF76CFA08
:101CB00015E02046FFF7E2F911E02046FFF788FA29
:101CC0000DE02046FFF7CAF909E02046FFF7E6F9E4
:101CD00005E02046FFF7A6FA01E0012500BF00BF9E
:101CE0002846BDE8F08100007C4800680078401C70
:101CF000C0B27A49096808700A280FD100207749D4
:101D00000968087076480068007820F0010074497E
:101D100009680870FF207249096888706F48006878
:101D20004078401CC0B26D49096848700A280BD140
:101D300000206A490968487069480068007820F006
:101D40000200674909680870644800688078401C90
:101D5000C0B26249096888700A2808D100205F492A
:101D6000096888704FF6FF705D490968C8805B4854
:101D70000068C078401CC0B258490968C8700A2879
:101D800007D1002055490968C870FF2054490968E7
:101D90000871524800680079401CC0B24F49096878
:101DA00008710A2807D100204C4909680871FF20F2
:101DB0004B4909684871494800688079401CC0B2A5
:101DC0004649096888711E280AD1002043490968DC
:101DD0008871401E424909684861414909680861A3
:101DE0003E4800684079401CC0B23C4909684871CF
:101DF0001E280AD10020394909684871401E384917
:101E00000968C86036490968886034480068C07944
:101E1000401CC0B231490968C8711E280AD100208F
:101E20002E490968C871401E2D49096888612C49EE
:101E30000968C86129480068007A401CC0B2274977
:101E4000096808720A2808D1002024490968087224
:101E50004FF6FF7022490968088420480068407ADC
:101E6000401CC0B21D49096848720A2808D10020E8
:101E70001A49096848724FF6FF7019490968488481
:101E800016480068807A401CC0B2144909688872FC
:101E90000A2808D100201149096888724FF6FF709E
:101EA0000F49096888840D480068C07A401CC0B298
:101EB0000A490968C8720A280ED100200749096832
:101EC000C8724FF6FF7006490968488504490968D9
:101ED000C884034909680885704700008400002011
:101EE0008800002001480078704700008E00002024
:101EF00010B50446482204490448FEF7B0FB06200A
:101F00002070024810BD0000D4510008E4030020F6
:101F100070B5054600241B480078801D28704822B3
:101F200019491A48FEF79BFB062423E0A01F00EB8B
:101F30004000174901EB8000007A04EB4401134A8A
:101F400002EB81010872A01F00EB4000104901EB79
:101F50008000406804EB440102EB81014860A01F4F
:101F600000EB40000A4951F8200004EB440142F81C
:101F70002100641C03480078801DA042D6D8034885
:101F800070BD00008D000020D4510008E403002043
:101F90008004002010B59C210348FEF7BCFB3021D3
:101FA0000248FEF7B8FB10BDE403002080040020C7
:101FB00001460C2904D0182902D04FF0FF30704799
:101FC000014801700020FAE78E00002030B503467A
:101FD000042902D34FF0FF3030BD042B02D34FF061
:101FE000FF30F9E70A4C2370107A01EB4104094DE8
:101FF00005EB8404207201EB4104106845F82400CD
:1020000001EB410405EB8404506860600020E3E7C5
:102010008D0000208004002070B505460C46E1B21A
:102020002846FEF781FE295D884201D1012070BD5E
:10203000402000F013FD00BFE1B22846FEF774FE19
:1020400006462A5D3346034903A0FEF743F900BF65
:102050000020ECE71C5200085B4552525D092573D5
:10206000206572726F7220256420256420200A008A
:1020700002460AB900207047505C552801D1012062
:10208000F9E70020F7E7024600230AB9002070476D
:10209000107808700878112804D0152803D020285B
:1020A00004D101E000BF00BF012301E0002300BF15
:1020B00000BF1846EBE7000030B589B005460024A4
:1020C00045B900BF234924A0FEF704F900BF601EF4
:1020D00009B030BD1222E91C04A8FEF77BFA9DF876
:1020E000110004280ADD00BF9DF81120194920A025
:1020F000FEF7F0F800BF4FF0FF30E9E79DF8100061
:102100000C2803D09DF810000E2803D19DF8100074
:10211000FFF74EFF002415E00DF1120030F8140017
:10212000000201900DF11A0030F814000002029034
:102130001D208DF80C009DF8110001AA2146FFF723
:1021400045FF641C9DF81100A042E5DCFFF7F6FB9B
:102150000020BDE7335200085B4552525D092573EC
:102160002020206D7367206E756C6C0A00000000E3
:102170005B4552525D09257320202053554D202583
:1021800064200A0070B50446E578211D284600F059
:1021900021FC002070BD2DE9FF4105468846002442
:1021A00000BF4EE004EB440055F8200004EB44016E
:1021B00005EB8101097AC1F1200100FA01F604EB77
:1021C000440005EB8000406804EB440105EB81010D
:1021D000097AC1F1200100FA01F7E0B28DF80A0096
:1021E00000208DF80B0001208DF80C004FF6FF70D9
:1021F00000EA1640ADF8000004EB440005EB800057
:10220000007A1D2805D1B0B240F00400ADF80200FC
:1022100002E0B0B2ADF802004FF6FF7000EA1740DE
:10222000ADF80400B8B240F00600ADF8060000209A
:10223000ADF8080001208DF80D006846FEF7C2FBDE
:10224000641C4445AEDBBDE8FF81000008B50121F8
:10225000052002F0C1FA0121480602F09DFA4FF470
:102260000060ADF8000048208DF803006946094879
:10227000FEF74BFE4FF48050ADF8000018208DF8AB
:10228000030003208DF8020069460248FEF73DFE78
:1022900008BD00000008014010B500240248FEF708
:1022A00015FC0446204610BD0064004001B586B010
:1022B0001E48FEF76BFB03A8FEF719FD00208DF802
:1022C00012008DF813008DF814008DF815008DF8AC
:1022D00016008DF817008DF80E009DF818008DF887
:1022E0000F009DF819008DF810009DF81A008DF868
:1022F00011009DF81B00ADF80C0003A90B48FEF778
:10230000F4FB012202210948FEF7E6FB9DF81B00C1
:102310009DF81A10CDE900109DF819309DF818208D
:10232000034904A0FDF7D6FF07B000BD00640040DC
:102330004D53000825732043414E5F534A57203ABE
:1023400025642043414E5F4253313A256420434186
:102350004E5F425332203A2564202043414E5F5065
:1023600072657363616C65723A2564200D0A000022
:10237000F8B504460D46164600214FF0006000F007
:102380004BFF084804700848057014208DF80000C1
:102390008DF801408DF802508DF80360684600F01A
:1023A000F9FEF8BD500100205101002038B500248D
:1023B000FDF734FF044614208DF80000094800782A
:1023C0008DF80100084800788DF8020000208DF893
:1023D0000300684600F0DEFE2046FDF723FF0020E4
:1023E00038BD0000500100205101002038B5002404
:1023F000FDF714FF044614208DF80000094800780A
:102400008DF80100084800788DF8020001208DF851
:102410000300684600F0BEFE2046FDF703FF0120E2
:1024200038BD0000500100205101002008B50322F2
:1024300011464FF4E13002F0E1FBFFF707FF012204
:1024400011460020FFF794FF00208DF800000220C5
:102450008DF8010001208DF8020018208DF803008E
:102460000098FFF723FF032202214FF4964000F06B
:102470002FF90223012241F61F41632000F098F852
:10248000002000F0C5F802231A4641F61F4140F231
:10249000E73000F049F8012000F076F800F002F88B
:1024A00008BD000008B50121242002F095F90121A2
:1024B000102002F091F94FF40050ADF80000102008
:1024C0008DF8030003208DF8020069461348FEF7DB
:1024D0001CFD4FF400511148FEF7A2FD4FF480702F
:1024E000ADF8000010208DF8030003208DF80200E5
:1024F00069460B48FEF709FD4FF480710848FEF766
:102500008FFD0420ADF8000069460648FEF7FDFC8B
:1025100004210448FEF784FD08BD000000100140BE
:1025200000080140001401402DE9FF4107460C4618
:1025300015461E460121022002F02EF9ADF8047066
:10254000ADF800400020ADF80600ADF80200694685
:102550000C4802F001FB012211460A4802F0F0FA91
:102560001D208DF80C008DF80D508DF80E600120A7
:102570008DF80F0003A800F00DFE002000F004F815
:10258000BDE8FF810004004010B5044644B10021BD
:10259000064802F0DEFA0121044802F0B4FA03E032
:1025A0000021024802F0AFFA10BD00000004004014
:1025B0002DE9FF4107460C4615461E460121042021
:1025C00002F0EAF8ADF80470ADF800400020ADF874
:1025D0000600ADF8020069460C4802F0BDFA01227F
:1025E00011460A4802F0ACFA1E208DF80C008DF856
:1025F0000D508DF80E6001208DF80F0003A800F03B
:10260000C9FD002000F004F8BDE8FF81000800408B
:1026100010B5044644B10021064802F09AFA01219F
:10262000044802F070FA03E00021024802F06BFA5D
:1026300010BD00000008004070B58CB006460C4686
:1026400015460121084602F097F83046FEF792FB46
:1026500001940295102003900020049005908020A2
:10266000069000200790089009904FF480500A903F
:1026700000200B9001A93046FEF726FC0CB070BD7F
:1026800070B504460D4600212046FEF767FB29463B
:102690002046FEF737FC01212046FEF75FFB70BDA8
:1026A00070B504460D462A4621460748FDF792FFBD
:1026B00029460648FFF7E4FF00BF0448FEF700FC88
:1026C0000028FAD170BD00002812002080000240CE
:1026D00070B586B006460C4615460121042002F06E
:1026E0007BF80121480402F057F82A4802F068FB01
:1026F0000420ADF8100003208DF8120018208DF88A
:10270000130004A92448FEF700FC0820ADF81000CF
:1027100004208DF8130004A91F48FEF7F6FB00966D
:102720000020ADF80400ADF80600ADF80800ADF8E3
:102730000C000C20ADF80A006946164802F0DEFBDA
:1027400001228021134802F031FB144A1149091D6E
:102750001348FFF771FF01210E4802F01BFB012215
:1027600040F225510B4802F0A3FB26208DF81400FF
:102770008DF815408DF8165001208DF8170005A82A
:1027800000F008FD002007490880FFF741FF06B070
:1027900070BD0000004400400008014028120020E5
:1027A000800002405801002070B504460D4604F137
:1027B0001400FEF76FFEE068401BE060606828448C
:1027C000A168B0FBF1F201FB1200606004F114009B
:1027D000FEF76AFE70BD00002DE9F04104460E468A
:1027E000154634B91E491FA0FDF774FD0020BDE851
:1027F000F081206928B91A491FA0FDF76BFD002060
:10280000F5E704F11400FEF745FEE068A84200D2A7
:10281000E56860682844A168884213D3D4E9013090
:10282000C21A2069C1183046FDF7D4FE63682B44F4
:10283000A768DA1B3B466768DB1B98192169FDF71F
:10284000C9FE06E06268206981182A463046FDF715
:10285000C1FE04F11400FEF727FE2846C7E700007A
:10286000695200082025732020696E666F20697305
:10287000204E554C4C0D0A002025732020696E66B1
:102880006F20627566206973204E554C4C0D0A000E
:102890002DE9F04104460D4616461F4615B908A01D
:1028A000FDF718FD2561002060602060E060A660F3
:1028B000394604F11400FEF7C5FDBDE8F0810000C3
:1028C0004A7A5F52696E676275666665725F496EC5
:1028D000697420627566206973204E554C4C0A005D
:1028E0002DE9F04104460E4615463CB9284929A079
:1028F000FDF7F0FC4FF0FF30BDE8F081206908B132
:10290000A06830B9224928A0FDF7E4FC4FF0FF3061
:10291000F2E7002D06DC1E4928A0FDF7DBFC4FF096
:10292000FF30E9E704F11400FEF7B4FD2068284405
:10293000A168884213D92368A168CA1A2169C818F6
:102940003146FDF747FE23682B44A768DA1B3B4658
:102950002768DB1B99192069FDF73CFE06E0226819
:10296000216988182A463146FDF734FEE06828447C
:10297000E06020682844A168B0FBF1F201FB12007E
:10298000206004F11400FEF78FFD0020B4E7000082
:102990004B5200082025732020696E666F206973F2
:1029A000204E554C4C0D0A00202573202064617484
:1029B00061206973204E554C4C0D0A002025732070
:1029C000206C656E2069732077726F6E67200D0A28
:1029D000000000002DE9F04106460D4600240E2EB1
:1029E00001D90E2000E03046074635B9124913A040
:1029F000FDF770FC0120BDE8F0811248FEF74AFDAA
:102A000000240DE035F814100E481C3820F814107E
:102A100000BF30F814100CA0FDF75CFC00BF641C74
:102A2000BC42EFDB074920398F7001200870054850
:102A3000FEF73AFD0020DEE7D4520008202573207F
:102A40000D0A0000D00D00205B494E464F5D09493C
:102A5000444D41534B202578200D0A000249097846
:102A60000143014A117070478F00002070B5054680
:102A70000C4605B134B9164916A0FDF72BFC4FF0F2
:102A8000FF3070BD16A12846FDF76CFE10B904207A
:102A900020701AE015A12846FDF764FE10B9062043
:102AA000207012E014A12846FDF75CFE10B9052045
:102AB00020700AE013A12846FDF754FE10B9072044
:102AC000207002E04FF0FF30DBE70020D9E7000084
:102AD00089520008202573206661696C640D0A0024
:102AE00063616E70617273650000000075617274DD
:102AF00070617273650000007561727473656E6455
:102B0000000000007561727463616E0070B5054667
:102B10000C4605B134B92E492EA0FDF7DBFB4FF072
:102B2000FF3070BD2EA12846FDF71CFE50B92F487E
:102B300020620B2084F82E00A0852D486062802042
:102B4000A06242E02BA12846FDF70CFE50B92C48AC
:102B500020620C2084F82E00A0852A486062802024
:102B6000A06232E028A12846FDF7FCFD50B92948B3
:102B700020620A2084F82E00A08527486062602029
:102B8000A06222E025A12846FDF7ECFD50B92548BA
:102B90002062082084F82E00A085234860628020EF
:102BA000A06212E021A12846FDF7DCFD50B92248C1
:102BB0002062092084F82E00A085204860626020F1
:102BC000A06202E04FF0FF30ABE70020A9E7000071
:102BD000A6520008202573206661696C640D0A0006
:102BE000756172747265616400000000AC080020B9
:102BF000B006002075617274706172736500000028
:102C0000AC060020B00400207561727473656E64B8
:102C1000000000002C0A0020B008002063616E72E2
:102C2000656164002C0C0020300A002063616E7026
:102C30006172736500000000AC0D0020300C0020B4
:102C400010B51C48FEF736FC04463CB100BF1A49DB
:102C50001AA0FDF73FFB00BF204610BD00231F4A0E
:102C60001F492048FEF77AFC04463CB100BF1249D8
:102C70001DA0FDF72FFB00BF2046EEE721A34FF478
:102C8000807223492348FFF703FE40B100BF0A4981
:102C900021A0FDF71FFB00BF4FF0FF30DDE700BFB5
:102CA0000F4890F82E20044923A0FDF713FB00BF26
:102CB0000020D2E798000020E85200085B455252FD
:102CC0005D092573204A7A53656D437265617465A9
:102CD000206661696C64200D0A000000712D0008F7
:102CE000A0000020940000205B4552525D0925732E
:102CF00020204A7A54687265616443726561746524
:102D0000200D0A00756172747061727365000000B5
:102D1000D40D0020540F00205B4552525D092573ED
:102D200020204A7A5F52696E676275666665725FD7
:102D3000496E6974200D0A005B494E49545D0925AE
:102D400073207072696F202564200D0A0000000056
:102D500070B504460D462A4621460348FFF7C0FDDC
:102D60000248FEF7D1FB70BD540F002098000020F0
:102D7000F8B50646002400BF2CA0FDF7ABFA00BF53
:102D80004FE000213148FEF7C6FB3148007800B91A
:102D900048E080222F493048FFF71EFD05460024F9
:102DA00038E021462B48FFF763F900B931E0601C99
:102DB000A84200DB30E0274A611C50186946FFF743
:102DC00062F928B39DF800002044A84200DD23E00A
:102DD000204908199DF80010FFF71EF9C0B19DF8B1
:102DE0000000112810D09DF80000152804D11949C1
:102DF0000819FFF761F907E09DF80000202803D1CA
:102E000014490819FFF7BEF99DF80000401E04445C
:102E100000BF641CAC42C4DB00BF21460E48FFF774
:102E2000C3FCAEE700BFFEF7C4FBF8BD5B494E49EB
:102E3000545D094A7A5F5561727450617273655FBF
:102E40005461736B46756E630D0A00009800002094
:102E50009C000020D40E0020540F002010B5134811
:102E6000FEF728FB04460CB1204610BD0023104A93
:102E700010491148FEF772FB04460CB12046F4E7F6
:102E8000C8210E48FDF725FC01200D4908700020DF
:102E90000C49087000BF074890F82E200A490BA083
:102EA000FDF718FA00BF0020DFE70000D400002083
:102EB000752F0008E4000020D00000206C0F0020D7
:102EC000D8000020D9000020FA5200085B494E4982
:102ED000545D092573207072696F202564200D0AE6
:102EE0000000000070B505460C460B48007868B934
:102EF000012009490870224629460848FDF76AFB67
:102F0000074804600748FEF7FFFA04E000BF06A088
:102F1000FDF7E0F900BF70BDD90000206C0F002064
:102F2000E0000020D40000205B494E464F5D094A76
:102F30007A5F55617274526561645F53656E644671
:102F400072616D65206E6F742066696E6973686565
:102F5000642121212121212121212121212121211E
:102F6000210A00000146024801600020704700006D
:102F7000DC00002010B5044600BF0FA0FDF7AAF941
:102F800000BF13E000211448FEF7C5FA134800689B
:102F900028B1134801681348104A1268904700206E
:102FA000114908701148007800B900E0EAE700BF55
:102FB000FEF7FFFA10BD00005B494E49545D094A17
:102FC0007A5F55617274526561645F5461736B46D8
:102FD000756E630D0A000000D4000020DC000020A4
:102FE000E00000206C0F0020D9000020D800002055
:102FF00010B51548FEF75EFA04460CB1204610BD28
:10300000FEF710FB11A3142213491448FEF74EF9E2
:103010000023134A13491448FEF7A0FA04460CB1E2
:103020002046ECE701201149087000201049087083
:1030300000BF0C4890F82E200E490FA0FDF74AF96A
:1030400000BF0020DBE700001801002075617274EA
:1030500073656E640000000034100020C41100206D
:10306000CD30000820010020140100201C010020A8
:103070001D0100200B5300085B494E49545D092592
:1030800073207072696F202564200D0A0000000013
:1030900010B5044621460A48FEF724F910B1042071
:1030A000FFF7DCFC0748007840B9012005490870AB
:1030B0000420FEF7F3FC0448FEF726FA10BD0000DA
:1030C000C41100201D0100201801002010B5044685
:1030D00000BF15A0FDF7FEF800BF20E032211A481E
:1030E000FEF719FA07E019491948FEF76DFA1121A0
:1030F0001648FEF760FA16491648FEF7B1F80028A0
:10310000F1D11548FEF7FEFC30211348FEF753FAC3
:103110000020124908701248007800B900E0DDE78D
:1031200000BFFEF746FA10BD5B494E49545D094A9F
:103130007A5F5561727453656E645F5461736B4658
:10314000756E630D0A00000018010020E4110020D4
:10315000D0110020C4110020F81100201D01002012
:103160001C01002000BFFEE7034908780978491CCC
:10317000014A1170704700008C0000200349087854
:103180000978491C014A1170704700009000002026
:103190007047000070B5002100230F22C47804B3EB
:1031A000154C246804F4E064C4F5E064210AC1F11C
:1031B0000403CA40447804FA03F18478144021439C
:1031C00009010E4C0678A155047804F01F0501246E
:1031D000AC4005786D11AD0005F1E025C5F8004162
:1031E00009E0047804F01F050124AC40044D067882
:1031F000761145F8264070BD0CED00E000E400E0DB
:1032000080E100E002490143024A1160704700007A
:103210000000FA050CED00E0024A0A400243024BAE
:103220001A60704780FFFF1F08ED00E010B500F046
:1032300015F801F025F801F04DF801F06DF800F0F7
:10324000F5FF00F0C7FF01F001F901F0A5F801F06A
:10325000CBF800F0FFFD00F007F810BD0020014999
:1032600008807047D80100207047000006480078A9
:10327000012808D105480078FF2804D203480078C7
:10328000401C0249087070479E01002091010020F7
:1032900010B500241A480078012830D1FCF7BEFF91
:1032A00004461848007820B116480078401E154999
:1032B000087014480078F8B913480078E0B901F0B4
:1032C00027F912481249097850F82100114908607D
:1032D0000F4800781049097888420DD00D480068E1
:1032E000806B401C0B49096888630C480068401CCF
:1032F0000A490860FCF7B1FF2046FCF793FF10BDB8
:103300009E01002091010020920100200C19002054
:1033100094010020AC0100209301002078010020DE
:103320002DE9F04105460E4600271F48007820B1E0
:10333000102030700020BDE8F081FCF76FFF0746D9
:103340001A4850F8250030B13846FCF76BFF2820AA
:1033500030700020EFE70120144941F8250014489F
:1033600004684CB9002041F825003846FCF75AFFA4
:10337000042030702046DEE70D48006840680C49A4
:1033800008603846FCF74EFF04202070FF2040EA1A
:103390000520208100206060204600F00DFF002005
:1033A00030702046C7E70000910100200C19002072
:1033B0007C0100202DE9F74F82B00546174600201A
:1033C00001902878042804D00120387005B0BDE8A9
:1033D000F08F8048007810B102203870F6E77E4800
:1033E000007810B10D203870F0E7FCF717FF01905E
:1033F00028894FEA2029287AFF281FD1288900F43C
:103400007F40288128897549096891F8321008435E
:1034100028817248006868607048006890F832003F
:10342000484505DC0198FCF7FDFE7820387004E083
:103430000198FCF7F7FE00203870C7E795F808B050
:103440006C6894F8320048457ADD6448006890F86A
:103450003200584574DA94F83480614810F8080056
:1034600094F835100840B0B15D4810F8080094F8A1
:10347000351088435A4901F80800084610F808003A
:1034800030B994F836105748007888435549087089
:103490004FF0010A19E0E669AEB194F8348006F104
:1034A0000B0010F8080094F83510884306F10B0162
:1034B00001F80800084610F8080020B9B07A94F81E
:1034C00036108843B0724FF0000A04F8329F20781B
:1034D000C010A070207800F007006070A178012073
:1034E00088402071617801208840E070323CBAF158
:1034F000010F10D13434A0783A490978084339498A
:10350000087020783649085C6178084314F834194B
:10351000334A505411E0E6697EB1B07A3434A17870
:103520000843B072217806F10B00405C61780843D3
:1035300014F8342906F10B0188542B4840F829402F
:103540002648006890F8300040F0100023490968D0
:1035500081F8300000202149096881F831001F49B5
:1035600003980968C862284600F0E8FD0198FCF756
:1035700059FE00F093FFFCF751FE019017480068D8
:1035800090F8310020B1012809D0022806D102E0CC
:10359000002038700BE00E20387008E000BF29468C
:1035A0000E48006800F0B4FD0A20387000BF00BF6C
:1035B00000200A49096881F830000849096881F843
:1035C000310006490968C8610198FCF72BFE00BF6D
:1035D000FCE600009101002092010020A4010020DF
:1035E00096010020950100200C1900202DE9F041E2
:1035F000044600272C48007810B10520BDE8F08172
:103600002078042801D00120F8E7FCF707FE0746E0
:1036100020890612257A254960680968884204D005
:103620003846FCF7FFFD6420E8E72048006890F882
:103630003200B04204D129461C48006800F03AF834
:1036400001201B4941F82600A07A08B3002310226C
:103650001946204600F01AFD0546208900F47F40F7
:103660002081208928432081114850F8250060607E
:10367000B54206DC3846FCF7D5FD00F00FFF782098
:10368000BCE73846FCF7CEFD00F008FF0020B5E7A8
:10369000208940F0FF002081002060603846FCF760
:1036A000C1FD0020AAE7000091010020A401002034
:1036B0000C19002030B590F834201B4B9B5C90F81F
:1036C0003540A343184CA35423469B5C33B990F870
:1036D0003640164B1B78A343144C237000F8321F5E
:1036E000134B1970C1F3C203837001F007034370D9
:1036F00084780123A340037144780123A340C3705D
:1037000003790A4C24782343084C23708378064CB1
:10371000E35CC478234384783238034D2B55054B42
:1037200043F8210030BD00009601002095010020E3
:10373000930100200C19002010B500240B480078DC
:10374000012811D1FCF76AFD04460948007840B908
:1037500008480078FF2804D206480078401C054934
:1037600008702046FCF75EFD10BD00009E010020A1
:10377000910100209201002010B500241348007828
:10378000012821D1FCF74AFD044611480078C0B158
:103790000F480078401E0E4908700846007860B94E
:1037A0000C48007828B92046FCF73CFD00F076FE76
:1037B0000AE02046FCF736FD06E02046FCF732FD25
:1037C00002E02046FCF72EFD10BD00009E01002007
:1037D000920100209101002070B5054600260F4897
:1037E000007808B1002070BDFCF718FD06460C48B3
:1037F0000468006820B10A48006840680849086009
:103800003046FCF70FFD3CB10320207025810020DD
:103810006060204600F0D0FC2046E4E791010020E3
:103820007C0100202DE9F04105460E461446002794
:103830002878032803D001202070BDE8F0813148AA
:10384000007810B102202070F7E72F48007810B1FF
:103850000D202070F1E7FCF7E1FC0746288940B114
:103860002889401E28813846FCF7DCFC00202070A7
:10387000E3E72648006890F8300040F00100234953
:10388000096881F8300000202049096881F831007A
:103890001E480068C662284600F050FC3846FCF717
:1038A000C1FC00F0FBFDFCF7B9FC074617480068B7
:1038B00090F8310020B1012809D0022806D102E099
:1038C000002020700BE00E20207008E000BF294689
:1038D0000E48006800F01CFC0A20207000BF00BFEA
:1038E00000200A49096881F830000849096881F810
:1038F000310006490968C8613846FCF793FC00BFEF
:103900009BE700009101002092010020A40100200B
:1039100070B5044600252078032801D0012070BD31
:10392000FCF77CFC0546A07A60B100230122194611
:10393000204600F0ABFB2846FCF774FC00F0AEFD1F
:103940000020ECE720894FF6FF71884207D22089DA
:10395000401C20812846FCF765FC0020DFE7284654
:10396000FCF760FC3320DAE710B50B48007890B91B
:1039700000F0CEFD09480078094908700948074958
:10398000097850F82100084908600846006807498E
:103990000860FCF74AFC10BD9E0100209401002045
:1039A000930100200C190020AC010020A40100208C
:1039B000704700002DE9F04F85B081468A46934656
:1039C0001C46DDE90F78129D00200390FCF726FCD1
:1039D00003902348007830B10398FCF723FC3C2087
:1039E00005B0BDE8F08F1F4850F8240088BB0120C7
:1039F0001C4941F824000398FCF714FC2A46414670
:103A0000384600F0ABFE2B465A465146484600F079
:103A1000AFF804901198CDE9008002953A4620460F
:103A20000E9B049900F08AFD064636B90E480078D0
:103A300001280CD100F032FD09E0FCF7EFFB039008
:103A40000020084941F824000398FCF7EBFB3046BE
:103A5000C6E7FFE70398FCF7E5FB2820C0E7000076
:103A6000910100200C1900209E0100207047704732
:103A70002DE9F04106460F4614464FF00008154860
:103A8000007818B112202070BDE8F081FCF7C6FB69
:103A90008046FF2E03D11048006890F832600F482E
:103AA00050F826502DB94046FCF7BCFB432020704F
:103AB000EAE7012D05D14046FCF7B4FB4320207016
:103AC000E2E7EF644046FCF7ADFB0020207000BF4A
:103AD000DAE7000091010020A40100200C19002069
:103AE000704700002DE9F04707460D464FF0000AE9
:103AF000002028606860FCF791FB8246FF2F03D10D
:103B00001948006890F83270184850F827402CB9CE
:103B10005046FCF787FB4320BDE8F087012C04D119
:103B20005046FCF77FFB4320F6E7207C00F00100C5
:103B300020B95046FCF776FB4520EDE70026D4F887
:103B40000C90D4F808805046FCF76CFB00E0761C23
:103B500058F8041B0029FAD0B0002860A9EB060031
:103B6000800068600020D7E7A40100200C19002025
:103B700070B5044610464FF080750560051F284655
:103B80002C606FF00106051F28462E604FF012369C
:103B9000051F28462E604FF00336051F28462E606D
:103BA0004FF00236051F28462E607610051F284666
:103BB0002E60051F284629604FF01136051F284644
:103BC0002E604FF01036051F28462E604FF0093644
:103BD000051F28462E604FF00836051F28462E6028
:103BE0004FF00736051F28462E604FF00636051F9A
:103BF00028462E604FF00536051F28462E604FF0F0
:103C00000436051F28462E6070BD00002DE9F041E6
:103C100005464FF00008FCF701FB8046FF2D05D15B
:103C20002048006890F83250012608E01D480068DE
:103C300090F83200A84201D1012600E000261A487F
:103C400050F825402CB94046FCF7ECFA4820BDE876
:103C5000F081012C04D14046FCF7E4FA4320F6E75A
:103C600094F834701148C05D94F8351088430F49BA
:103C7000C8550846C05D30B994F836100C48007835
:103C800088430B49087094F8300040F0080084F82D
:103C900030004046FCF7C6FA012E01D100F0FEFBD1
:103CA0000020D4E7A40100200C1900209601002078
:103CB000950100207047000070B5054600261748A2
:103CC000007800B170BD1648007800B1FAE71DB366
:103CD000FCF7A4FA06461348006890F834401248EE
:103CE000005D1049096891F8351088430E49085560
:103CF0000846005D40B90B48006890F836100B4844
:103D0000007888430949087006480068C562304653
:103D1000FCF788FA00F0C2FB00BFD3E79101002056
:103D200092010020A40100209601002095010020AE
:103D300070B5002600F072F8FCF770FA06463148BC
:103D40000068401C2F4908603046FCF76BFA2E488B
:103D50000078012853D12D48007820B1012804D0E3
:103D6000022809D103E001250BE0002509E0012527
:103D700001202649087004E001250020234908702D
:103D800000BF00BF05B970BD2148046833E0FCF7EF
:103D900045FA0646E06A50B3E06A401EE062E06A17
:103DA00028BB94F8300000F0370040B114F8300F11
:103DB00000F0C800207001206070303C02E000205C
:103DC00084F8310094F8300000F0080078B93434F9
:103DD000A0781049097808430E49087020780E49E8
:103DE000085C6178084314F834190B4A505464692C
:103DF0003046FCF717FA94F832003F28C7D100BFCD
:103E0000C1E70000BC0100209E010020B401002099
:103E1000B0010020950100209601002010B5074850
:103E20000088401C05490880084600880A2803D3FA
:103E30000020088000F004F810BD0000D801002028
:103E400010B503480068FFF763FD0446204610BD27
:103E5000CC0100202DE9F0414FF42071224800F000
:103E6000EBFA4021214800F0E7FA002514E0681C35
:103E700086B205EB85001C4901EBC00406EB860009
:103E800001EBC00764202070002084F82500E76063
:103E900017A02062681C85B20F2DE8D305EB8500C2
:103EA000114901EBC00464202070002084F8250033
:103EB000E0600FA0206200200E4908600E490880D3
:103EC00010200E49088008480D4908600120FFF7BE
:103ED00083FC0C4908600020FFF77EFC0A4908605B
:103EE00000F014F8BDE8F081741E0020F4220020D8
:103EF0003F000000C4010020C2010020C0010020DA
:103F0000D0010020C8010020CC01002000B587B0FE
:103F10000320002180220A4BCDE90132CDE90310B4
:103F20004FF6FD700123074A00900748FFF742FD56
:103F300006AA06A10120FFF79BFD07B000BD000007
:103F4000F4200020F0220020C93F000875432F4FC5
:103F5000532D494920546D720000000070B50B4686
:103F6000032580F82550012B05D1154EC56936680B
:103F7000354445610CE085692DB9114EC569366837
:103F80003544456104E00E4E856936683544456127
:103F9000057D05F007040B4D05EBC4010D682DB937
:103FA00008600025C56001258D8006E00A6808606C
:103FB000C26010618D886D1C8D800025056170BD0B
:103FC000C4010020F422002008B500BF00BF6A46EB
:103FD00000211A480068FFF725FCFFF7ADFB1848E1
:103FE0000068401C164908600846007800F0070881
:103FF000144800EBC8073C681AE0E668104960699D
:104000000968884213D1204600F01EF894F8240075
:10401000022804D101212046FFF7A0FF02E0022080
:1040200084F82500656815B12046A168A847344684
:10403000002CE2D1FFF7A0FBC9E70000CC01002073
:10404000C4010020F422002030B5057D05F00704EE
:104050000D4D05EBC4031D68854205D1C16819608B
:1040600039B100250D6104E00169C268CA6002B17E
:104070001161012580F825500025C56005619D88E6
:104080006D1E9D8030BD0000F42200202DE9F04F10
:1040900005460F4690469946A87A19490E5C05F1E7
:1040A0000B00805D11F800B00BEBC60000F0FF0ABA
:1040B000144850F82A4000202034E0602760207C1B
:1040C00020EA0800207484F81190207C203C00F045
:1040D000080068B994F836000B49097808430A4982
:1040E00008700A48805D94F83510084307498855E0
:1040F0002946204600F00CF85046BDE8F08F00003D
:10410000635300080C19002095010020960100203F
:1041100010B590F8342001F10B039B5C90F835400A
:10412000A34301F10B04A35423469B5C23B98B7A70
:1041300090F83640A3438B7210BD000010B51B4AA7
:104140001268D061194A126892F8343000F10B02FB
:10415000D25C164B1B6893F835301A43134B1B681F
:1041600093F8344000F10B031A55827A0F4B1B6809
:1041700093F836301A4382720C4A126892F834105F
:104180000B4A525C094B1B6893F835309A43084B35
:104190005A541A46525C42B9044A126892F83630B0
:1041A000044A12789A43034B1A7010BDA4010020F0
:1041B0009601002095010020014600228A7200200D
:1041C00005E0002301F10B021354421CD0B2082871
:1041D000F7D370472DE9F0415021114800F02CF938
:1041E00000250DE0681C86B20D4800EB051400EBBD
:1041F00006170020207067600AA0E060681C85B286
:10420000042DEFD3064800EB0514002020706060F9
:1042100004A0E060024804490860BDE8F0810000A5
:10422000BC1400203F0000008001002070B54FF456
:104230008271114800F000F900230FE0581C85B28C
:1042400003EB83000C4901EB800405EB850001EBD7
:104250008006002020706660581C83B20C2BEDD3C2
:1042600003EB8300044901EB8004002020706060B0
:1042700008460249086070BDB81300207C01002088
:1042800000200A4908600A4908700A4908700A496A
:1042900008700A4908700A4908600A4908600A4912
:1042A00008600A4908600A4908707047BC0100208C
:1042B00091010020920100209F0100209E0100201A
:1042C00078010020A00100208C010020880100203E
:1042D0009001002000210A4A1170002004E0002112
:1042E000084A1154411CC8B20828F8D30021064AD4
:1042F0001170064A1170064A1160064A1160704733
:1043000095010020960100209301002094010020D7
:10431000AC010020A401002070B54FF47C71194855
:1043200000F08AF84FF48071174800F085F80024F7
:1043300013E0601CC5B2C4EBC40000EB400011499F
:1043400001EB8003C5EBC50000EB400001EB8006EC
:104350005E610EA0D864601CC4B20B2CE9D3C4EB20
:10436000C40000EB4000074901EB800300205861C6
:1043700006A0D86400200649086002480549086084
:1043800070BD00000C1A00200C1900203F00000036
:10439000B0010020A801002000B587B00320002153
:1043A00080220A4BCDE90132CDE903104FF6FF70B0
:1043B0003F23074A00900748FFF7FCFA06AA06A128
:1043C0003F20FFF755FB07B000BD00000C17002091
:1043D000081900207146000875432F4F532D494995
:1043E0002049646C6500000000B587B003200021FF
:1043F00080220A4BCDE90132CDE903104FF6FE7061
:104400003E23074A00900748FFF7D4FA06AA06A100
:104410003E20FFF72DFB07B000BD00000C1500206B
:10442000081700209946000875432F4F532D49491E
:10443000205374617400000004E0002200F8012B96
:104440004A1E91B20029F8D1704700002DE9F041D1
:1044500078211048FFF7F0FF00240DE0601C86B2C1
:1044600004EB44000B4901EBC00506EB460001EBF1
:10447000C0072F60601C84B2042CEFD304EB44000F
:10448000044901EBC0050020286008460249086085
:10449000BDE8F081FC1D0020B801002010B500240B
:1044A000FBF7BCFE044613480078F8B912480078C0
:1044B000E0B900F02DF811481149097850F82100B1
:1044C000104908600E4800780F49097888420DD0DD
:1044D0000C480068806B401C0A49096888630B48D7
:1044E0000068401C09490860FBF7B0FE2046FBF756
:1044F00099FE10BD91010020920100200C190020AE
:1045000094010020AC0100209301002078010020DC
:104510000649074A1278885C0649095C034A515CDF
:1045200001EBC001044A117070470000635300089A
:104530009501002096010020940100202DE9F84FFC
:1045400005460F4690469946DDE90AAB00200090EB
:10455000FBF764FE00903F480468002C74D01834C8
:1045600054F8040C3B4908600098FBF75BFE44F8E4
:10457000187CA576002020766076606144F814BC33
:1045800044F80CAC44F8108C0C9824F8080C24F86F
:10459000069C0020E077E810207705F00700E07621
:1045A000217F01208840A077E17E0120884060774C
:1045B00000206060E060A0602062A0626062E06253
:1045C000206325A06063183C002606E0002104F16A
:1045D000500040F82610701CC6B2002EF6D02046BF
:1045E000FFF7E6F92046FFF741FAFBF717FE0090C8
:1045F0001A4840F825401A48006860610020A06110
:104600001748006810B116480068846114480460B7
:104610003434A07813490978084312490870207887
:104620001149085C6178084314F834190E4A505453
:104630000E480078401C0D4908700098FBF7F2FD09
:104640000020BDE8F88FFFE70098FBF7EBFD422064
:10465000F7E70000A80100203F0000000C1900202F
:10466000B001002095010020960100209F0100204C
:10467000002400BF00BFFBF7D1FD044605480068D9
:10468000401C044908602046FBF7CCFDFFF7EFF91A
:10469000F1E70000A0010020002400BF02E0C820D4
:1046A000FFF70AFB194800780028F8D0184800687E
:1046B0006421B0FBF1F0164908600846006828B98B
:1046C000002014490870FF20FFF7A0FA00BFFBF795
:1046D000A5FD0446104800681049086000200E49F6
:1046E00008602046FBF79EFD0C48006808490968F1
:1046F000B0FBF1F0C0F1640006490870FFF7F0F973
:1047000000F00EF86420FFF7D7FAE0E790010020F0
:104710008801002084010020A00100208C010020DD
:104720007CB5002514E069462846FFF7DBF906460C
:1047300066B9094850F8254044B1012C06D0D4E9A7
:10474000020100EB810060640198A064681CC5B29E
:104750003F2DE8D97CBD00000C19002002F00103B8
:1047600043B102F002032BB102E0491E002308C04E
:104770000029FAD17047000029B1064A5269024364
:10478000044B5A6104E0034A52698243014B5A6167
:10479000704700000010024029B1064AD269024366
:1047A000044BDA6104E0034AD2698243014BDA61C7
:1047B000704700000010024029B1064A1269024306
:1047C000044B1A6104E0034A12698243014B1A61E7
:1047D000704700000010024029B1064A9269024366
:1047E000044B9A6104E0034A92698243014B9A6147
:1047F000704700000010024029B1064AD268024307
:10480000044BDA6004E0034AD2688243014BDA6069
:10481000704700000010024030B500210022002443
:1048200000232D4D6D6805F00C0121B1042905D040
:10483000082923D105E0294D056022E0274D0560B8
:104840001FE0254D6D6805F47012234D6D6805F469
:104850008034022505EB92421CB9214D5543056079
:104860000BE01D4D6D6805F400351DB11C4D554321
:10487000056002E0194D5543056002E0174D0560E3
:1048800000BF00BF144D6D6805F0F0010909154D1A
:104890006B5C0568DD4045600F4D6D6805F4E061B7
:1048A000090A104D6B5C4568DD4085600A4D6D68F6
:1048B00005F46051C90A0B4D6B5C4568DD40C5606D
:1048C000054D6D6805F44041890B074D6B5CC5686B
:1048D000B5FBF3F5056130BD0010024000127A000F
:1048E00000093D00DA010020EA010020704710B500
:1048F00000F002F810BD00000CB5002001900090FF
:104900003348006840F480303149086000BF3048C7
:10491000006800F4003000900198401C019000985D
:1049200018B90198B0F5A06FF1D12948006800F4DA
:10493000003010B10120009001E0002000900098AC
:10494000012843D12348006840F010002149086045
:104950000846006820F0030008600846006840F040
:10496000020008601A4840681949486008464068D3
:1049700048600846406840F48060486008464068E7
:1049800020F47C1048600846406840F4E810486015
:104990000846006840F08070086000BF0C4800685E
:1049A00000F000700028F9D00948406820F00300AA
:1049B000074948600846406840F00200486000BF70
:1049C0000348406800F00C000828F9D10CBD000035
:1049D0000010024000200240042808D14FF0E021DE
:1049E000096941F004014FF0E022116107E04FF046
:1049F000E021096921F004014FF0E02211617047C4
:104A000010B505480078012805D1FEF72FFCFFF707
:104A10008FF9FEF73DFC10BD9E01002010B5134834
:104A2000006840F0010011490860084640681049DC
:104A300008400E494860084600680E4908400B4986
:104A400008600846006820F4802008600846406836
:104A500020F4FE0048604FF41F008860FFF747FF16
:104A60004FF000600449086010BD000000100240D3
:104A70000000FFF8FFFFF6FE08ED00E010B5012191
:104A8000084800F04CF860B10121064800F038F801
:104A90000120FDF779FD0448006810B10248006864
:104AA000804710BD000400406001002010B50121C6
:104AB0000F4800F034F8D0B10E48008840F40040B0
:104AC0000C49088001210A4800F01AF80020FDF77F
:104AD0009FFD0948006838B106480088C0F30D0101
:104AE0000648054A1268904700200249088010BD18
:104AF00000080040580100205C010020F012002056
:104B0000CA430282704721B1028842F0010202804A
:104B100004E002884FF6FE731A400280704730B5F9
:104B20000246002000230024158A05EA0103958926
:104B300005EA010413B10CB1012000E0002030BDF2
:104B40001AB183890B43838102E083898B4383817C
:104B50007047818470470000002202881D4B9842F4
:104B60000ED01D4B98420BD0B0F1804F08D01B4B9C
:104B7000984205D01A4B984202D01A4B984204D161
:104B80004FF68F731A404B881A43174B984207D041
:104B9000164B984204D04FF6FF431A40CB881A4375
:104BA00002808B8883850B8803850A4B98420BD043
:104BB000094B984208D00E4B984205D00D4B9842B5
:104BC00002D00D4B984201D10B7A038601238382D8
:104BD00070470000002C01400034014000040040F8
:104BE00000080040000C004000100040001400408D
:104BF00000400140004401400048014070B586B0CB
:104C000004460E461546012144F20400FFF7E4FD78
:104C10004FF40070ADF8140003208DF81600182032
:104C20008DF8170005A91C48FCF76FF94FF4806058
:104C3000ADF8140004208DF8170005A91648FCF7FC
:104C400064F925208DF800008DF801608DF8025080
:104C500001208DF803006846FEF79CFA01940020BD
:104C6000ADF80800ADF80A00ADF80C00ADF8100082
:104C70000C20ADF80E0001A9084800F03FF9012210
:104C800040F22551054800F013F90121034800F0D6
:104C900081F806B070BD00000008014000380140F6
:104CA00010B5FEF7E3FA40F225511E4800F0D6F8A1
:104CB00010B31C4800F08EF9C4B21B48008800F401
:104CC0000040C8B91848008800F4804060B10A2C40
:104CD00003D000201449088020E01348008840F4E5
:104CE00000401149088019E00D2C06D10E480088BB
:104CF00040F480400C49088010E00B480088C0F365
:104D00000D000A490C5408480088401C06490880D8
:104D100008460088C72801DD00200880FEF7B8FAA1
:104D200010BD000000380140F801002034230020AD
:104D300010B540F22551134800F090F800B3114827
:104D400000F048F9C4B210480088C82812DA0021DF
:104D50000E48FFF7FEFE0C48008810B90120FDF751
:104D600057FC094801880088401C074A1080084801
:104D7000445405E00448008840F40040024908809B
:104D800010BD000000440040580100200008004011
:104D9000F012002021B1828942F40052828104E0A5
:104DA00082894DF6FF731A40828170471AB1838A57
:104DB0000B43838202E0838A8B4383827047000027
:104DC00010B504462048844209D101218803FFF729
:104DD00013FD00214FF48040FFF70EFD32E01B4829
:104DE000844209D101214804FFF7E6FC00214FF479
:104DF0000030FFF7E1FC25E01548844209D101218C
:104E00008804FFF7D9FC00214FF48020FFF7D4FC81
:104E100018E01048844209D10121C804FFF7CCFCF6
:104E200000214FF40020FFF7C7FC0BE00A48844242
:104E300008D101210805FFF7BFFC00214FF48010C5
:104E4000FFF7BAFC10BD00000038014000440040EC
:104E500000480040004C00400050004070B5024641
:104E6000002400230025002040F66A16B14200D13C
:104E700000BFC1F3421501F01F03012606FA03F338
:104E8000012D02D19689334006E0022D02D1168A07
:104E9000334001E0968A33400C12012606FA04F4EE
:104EA0001688344013B10CB1012000E0002070BD21
:104EB000F0B50346002400260025002040F66A17BE
:104EC000B94200D100BF1846C1F3421401F01F06D9
:104ED000012707FA06F5012C01D10C3004E0022C61
:104EE00001D1103000E014301AB107682F43076079
:104EF00002E00768AF430760F0BD00002DE9F0470E
:104F000086B005460E460024A24600BFA1460027F3
:104F1000B08900B100BF2F462C8A4CF6FF700440C8
:104F2000F08804432C82AC894EF6F3100440B0881C
:104F300031890843718908430443AC81AC8A4FF638
:104F4000FF400440B0890443AC8201A8FFF764FC31
:104F50001F48874202D1DDF810A001E0DDF80CA067
:104F6000A88900F4004040B10AEBCA0000EB0A1027
:104F700031684900B0FBF1F807E00AEBCA0000EB2A
:104F80000A1031688900B0FBF1F86420B8FBF0F03A
:104F900004012009642101FB1089A88900F4004064
:104FA00040B1322000EBC900B0FBF1F000F0070087
:104FB000044308E0322000EB09106421B0FBF1F05B
:104FC00000F00F0004432C8106B0BDE8F08700001C
:104FD0000038014001468888C0F30800704700008F
:104FE00010B586B00024FBF719F9044601AA002188
:104FF0000748FBF704FE2046FBF714F90548006854
:1050000018B101A803490968884706B010BD00001F
:10501000006400405401002000BFFEE730380A2839
:1050200001D2012070470020704700BF7047000088
:1050300010B56FF00400FFF7CFFC1048006810496E
:10504000B0FBF1F00F4908700C4800680C49B0FB48
:10505000F1F44FF47A70444301200B4908804FF07B
:10506000E020006940F002004FF0E02108610846AE
:105070004461006940F00100086110BD6401002036
:1050800000127A00EE010020F001002070B5044605
:105090000F480078A0B10F48007888B90E48008802
:1050A000844206DB0C48008894FBF0F5284600F0AB
:1050B0001DF80948008894FBF0F100FB114084B210
:1050C0004FF47A7104FB01F000F016F870BD000097
:1050D0009E01002091010020F001002010B5FEF794
:1050E0002BFB10BD10B5FEF747FB10BD10B50446F5
:1050F0002046FEF7E1FD10BD2DE9F04707460026EA
:105100004FF0E020D0F814901148007807FB00F829
:1051100000BFFFF7E3FF4FF0E020856911E04FF09B
:10512000E0208469AC420CD0AC4202D2281B064479
:1051300003E0A9EB0400284406442546464500D375
:1051400000E0ECE700BFFFF7CDFFBDE8F08700000F
:10515000EE01002000BF054A128802F04002002A3A
:10516000F9D0C2B2014B1B1D1A80704700380140B4
:1051700010B5FFF753FC4FF4A060FEF743F8FFF7BC
:1051800057FFFDF753F94FF4FA60FFF77FFFFEF783
:105190004DF8FCF7E1F8FEF7E7FB002010BD4A7A76
:1051A0005F43616E50617273655F496E6974004A56
:1051B0007A5F43616E526561645F5461736B4675DB
:1051C0006E63004A7A5F43616E526561645F496E47
:1051D000697400000000F00000F8FF001D000000EE
:1051E000006CFE0000FCFF001D00000000F0FE004F
:1051F00000FAFF001D00000000C1FE0000FDFF00DE
:105200001D00000000E0FE0000F6FF001D00000091
:1052100000EAFE0000EAFF001D0000004A7A5F502D
:1052200061727365557365725F4465746563745329
:10523000554D004A7A5F5061727365557365725FB0
:1052400050726F63657373436D64004A7A5F52698D
:105250006E676275666665725F50757444617461ED
:10526000546F427566666572004A7A5F52696E676E
:105270006275666665725F476574627566666572BB
:105280004865617264617461004A7A5F537973742E
:1052900065726D4765744D757465784174747242BA
:1052A000794E616D65004A7A5F5379737465726DEA
:1052B000476574546872656164496E666F42794EE1
:1052C000616D65004A7A5F43616E3255617274495F
:1052D0006E6974004A7A5F53657443616E556172FA
:1052E0007453656E644964004A7A5F556172745004
:1052F000617273655F496E6974004A7A5F556172C5
:1053000074526561645F496E6974004A7A5F5561E1
:10531000727453656E645F496E6974004A7A4D75A4
:10532000746578496E6974004A7A53656D43726595
:10533000617465004A7A43616E456E61626C650016
:105340004A7A43616E44697361626C65004A7A5FB0
:1053500050657269706872616C5F43616E5F496E1F
:105360006974000000010002000100030001000256
:10537000000100040001000200010003000100021E
:10538000000100050001000200010003000100020D
:1053900000010004000100020001000300010002FE
:1053A00000010006000100020001000300010002EC
:1053B00000010004000100020001000300010002DE
:1053C00000010005000100020001000300010002CD
:1053D00000010004000100020001000300010002BE
:1053E00000010007000100020001000300010002AB
:1053F000000100040001000200010003000100029E
:10540000000100050001000200010003000100028C
:10541000000100040001000200010003000100027D
:10542000000100060001000200010003000100026B
:10543000000100040001000200010003000100025D
:10544000000100050001000200010003000100024C
:10545000000100040001000200010003000100023D
:105460000001003031323334353637383941424368
:1054700044454640305800303132333435363738C1
:10548000396162636465664030780004000008009A
:10549000000000000000020001000010BC540008E1
:1054A00000000020FC010000280100081055000841
:1054B000FC010020642800008401000881720100C2
:1054C000093063616E7061727365694059440529E2
:1054D0007265616413AC031B20B80421FA18540DE3
:1054E0003275617274919A01912944092B91D98086
:1054F0000C2F73656E3CD17CA24A045400086602EE
:10550000030406070809296E6972E502040608000B
:04000005080001DD11
:00000001FF
