:020000040800F2
:10000000202C0020DD010008B5260008590F00084B
:1000100089260008C50900086D4500080000000099
:10002000000000000000000000000000713E000819
:100030003D0E0008000000006B020008853F00082C
:10004000F7010008F7010008F7010008F7010008B0
:10005000F7010008F7010008F7010008F7010008A0
:10006000F7010008F7010008F7010008F701000890
:10007000F7010008F7010008F7010008F701000880
:10008000F7010008F7010008F7010008F701000870
:1000900035450008F7010008F7010008F7010008DE
:1000A000F7010008F7010008F7010008F701000850
:1000B000F7010008F701000801400008F7010008F7
:1000C000F7010008F7010008F7010008F701000830
:1000D000F7010008F541000885420008F701000813
:1000E000F7010008F7010008F701000800F002F826
:1000F00000F065F80AA090E8000C82448344AAF15D
:100100000107DA4501D100F05AF8AFF2090EBAE85A
:100110000F0013F0010F18BFFB1A43F0010318473B
:1001200018490000384900000A444FF0000C10F84C
:10013000013B13F0070408BF10F8014B1D1108BF65
:1001400010F8015B641E05D010F8016B641E01F805
:10015000016BF9D113F0080F1EBF10F8014BAD1C55
:100160000C1B09D16D1E58BF01F801CBFAD505E073
:1001700014F8016B01F8016B6D1EF9D59142D6D3CD
:10018000704700000023002400250026103A28BFF5
:1001900078C1FBD8520728BF30C148BF0B607047F9
:1001A000642900F0F380782900F05781732900F06A
:1001B000BF83002070471FB51FBD10B510BD00F0F4
:1001C000D1FB1146FFF7F7FF04F018FA00F0EFFB40
:1001D00003B4FFF7F2FF03BC04F0D1F909488047EC
:1001E00009480047FEE7FEE7FEE7FEE7FEE7FEE719
:1001F000FEE7FEE7FEE7FEE704480549054A064B31
:1002000070470000A13F0008ED00000820260020F4
:10021000202C00202028002020280020EFF3108030
:1002200072B6704780F310887047204C204D2560CF
:100230004FF0000484F309881E4C4FF0010525702F
:100240001D4C4FF08055256062B6FEE730B41A4C65
:100250004FF08055256030BC704730B4164C4FF0DD
:100260008055256030BC704700BF72B6EFF309803F
:1002700028B1203880E8F00F10490968086000B5FF
:100280000F4880475DF804EB0E480F490A7802706A
:100290000A480E490A680260106890E8F00F2030A2
:1002A00080F309884EF0040E62B6704720ED00E03E
:1002B0000000FFFFAA01002004ED00E0B0010020D3
:1002C000D93100089F010020A0010020B8010020C2
:1002D000704700000FB4044910B503AA029800F05B
:1002E0002BFB10BC5DF814FB0002002070B5044627
:1002F00085690068C10601D5302600E02026C007C8
:1003000007D070BDD4E9012130469047206A401CD7
:1003100020626D1EF6D570BD70B504468569007803
:10032000C00707D170BDD4E9012120209047206A81
:10033000401C20626D1EF6D570BD70B50C4605469A
:10034000012A05D02878800600D5EA69002302E05A
:10035000012305E05B1C934202D2E05C0028F9D146
:10036000A869E618C01AA861286A184428622846B5
:10037000FFF7BCFF04E0D5E9012114F8010B904719
:10038000B442F8D32846FFF7C7FF70BD2DE9F0410E
:100390000646002410687529314616A510D0AFF323
:1003A0000080002802DA404213A507E031688A077E
:1003B00001D512A502E0490704D511A5012401E0E9
:1003C000AFF3008000210A2206F1240709E0B0FB08
:1003D000F2FCB0FBF2F302FB1C00303078541846FC
:1003E000491C0028F3D123462A463046BDE8F04197
:1003F00000F01ABA000000002D0000002B000000E1
:1004000020000000F0B40D460188090502D5214CFA
:100410007C4402E01F4C7C440E34002100F1240691
:1004200008E002F00F071209E75D42EA03721B09B8
:100430007754491C52EA0307F3D1027800231207CC
:1004400004D5702D06D009B1022311342246F0BC28
:1004500000F0EAB901231034F8E770B504460D4600
:1004600021461068AFF30080024629462046BDE8C9
:1004700070400023C6E7D21D22F00703D3E9002312
:10048000C0E70368126843F0200303600823C361D8
:100490000023B7E7E94500002DE9F05F89460446EF
:1004A0004FF0000ADFF874B1FB44C0F820A02046EA
:1004B000E1688847002874D0252806D0D4E90121B6
:1004C0009047206A401C2062F1E700265F462046E4
:1004D000E16888472028054607DB312D05D27819C9
:1004E00010F8200C08B10643F1E7B00701D526F05B
:1004F0000406C4F81CA00027C4F818A02A2D09D0AF
:10050000284604F035F838B304EB8708303DC8F8C6
:10051000185019E059F8041B204604EB870291613A
:10052000E1688847012F054618D1E069002820DAE4
:1005300026F020061DE0D8F8180000EB800005EB3F
:1005400040003038C8F818002046E1688847054662
:1005500004F00EF80028EED1012F0AD02E2D08D17C
:100560002046E16888477F1C0546022F46F020069A
:10057000C4DBA069002803DA404246F00106A0610E
:10058000F00701D026F010066C2D0BD0682D09D095
:100590004C2D39D06A2D35D0742D35D07A2D33D0ED
:1005A00016E038E0E1682F4620468847B842054605
:1005B00009D16C2F26D04FF48060E16806432046B5
:1005C0008847054604E06C2F1AD04FF4807006432C
:1005D0000DB3A5F14100192802D8203546F4006674
:1005E0004A462946204626604E46FFF7D9FD80B18F
:1005F00001280BD0F61D26F0070000F1080956E788
:100600004020E4E78020D8E70020D6E706F104097F
:100610004DE7284652E7206ABDE8F09F7945000083
:10062000032A40F2308010F0030C00F0158011F81E
:10063000013BBCF1020F624498BF11F801CB00F8F6
:10064000013B38BF11F8013BA2F1040298BF00F84A
:1006500001CB38BF00F8013B11F0030300F0258007
:10066000083AC0F0088051F8043B083A51F804CB2E
:10067000A0E80810F5E7121D5CBF51F8043B40F8F4
:10068000043BAFF30080D20724BF11F8013B11F8FF
:1006900001CB48BF11F8012B24BF00F8013B00F843
:1006A00001CB48BF00F8012B704710B5203AC0F0CD
:1006B0000B80B1E81850203AA0E81850B1E8185063
:1006C000A0E81850BFF4F5AF5FEA027C24BFB1E8A0
:1006D0001850A0E8185044BF18C918C0BDE8104011
:1006E0005FEA827C24BF51F8043B40F8043B08BF1A
:1006F0007047D20728BF31F8023B48BF11F8012BE1
:1007000028BF20F8023B48BF00F8012B70474FF08C
:1007100000020429C0F0128010F0030C00F01B80CE
:10072000CCF1040CBCF1020F18BF00F8012BA8BFDC
:1007300020F8022BA1EB0C0100F00DB85FEAC17CA0
:1007400024BF00F8012B00F8012B48BF00F8012B53
:1007500070474FF0000200B5134694469646203984
:1007600022BFA0E80C50A0E80C50B1F12001BFF46A
:10077000F7AF090728BFA0E80C5048BF0CC05DF8D0
:1007800004EB890028BF40F8042B08BF704748BF1E
:1007900020F8022B11F0804F18BF00F8012B704792
:1007A0004FF0013C50F8042B51F8043B9A4221D100
:1007B000A2EB0C03934313EACC1317D150F8042B8C
:1007C00051F8043B9A4215D1A2EB0C03934313EA70
:1007D000CC130BD150F8042B51F8043B9A4209D1A9
:1007E000A2EB0C03934313EACC13DBD04FF00000D1
:1007F000704700BFD01A01BAB1FA81F101F01801B7
:1008000022FA01F0CB40C1F12001DBB2C0B2C01A24
:100810002CFA01F3D11A914311EAC311E6D17047C2
:1008200070477047704770472DE9F0470D4699466D
:100830009246044600F124080168880604D5E06960
:1008400021F01001216000E00120A84201DD471BDA
:1008500000E00027A1697A1902EB0900081AA061DB
:100860002078C00602D42046FFF740FD002608E0AD
:10087000D4E901211AF806009047206A401C761C32
:1008800020624E45F4DB2078C0060AD52046FFF7EB
:100890002DFD06E0D4E9012130209047206A401C5C
:1008A0002062381EA7F10107F4DC07E0D4E901213A
:1008B00018F805009047206A401C2062281EA5F108
:1008C0000105F3DC2046FFF727FD2078000602D55E
:1008D0000220BDE8F0870120FBE7000001694A1C07
:1008E00002610878704700B58FB0CDE90131002171
:1008F000059105497944CDE9031011466846FFF793
:10090000CBFD0FB000BD0000E5FFFFFF10B5436950
:1009100013B1AFF3008001E0FFF70FFD012010BD20
:10092000127800F124010A7000224A700122EDE7DA
:1009300011684FF0FF32E9E7074B70B50D467B4475
:10094000FFF7D1FF0446284600F008F810B14FF039
:10095000FF3070BD204670BD9F3C0000007B00F062
:1009600080007047754600F029F8AE4605006946DC
:10097000534620F00700854618B020B5FFF73CFC31
:10098000BDE820404FF000064FF000074FF0000890
:100990004FF0000B21F00701AC46ACE8C009ACE811
:1009A000C009ACE8C009ACE8C0098D4670470446F0
:1009B000AFF300802046FFF70BFC000000487047B3
:1009C000BC25002000BFFEE710B504460B4884425A
:1009D00009D10121480603F0B1F900214FF0007060
:1009E00003F0ACF908E00121880603F0A7F9002123
:1009F0004FF0806003F0A2F910BD000000640040D9
:100A0000014600208A6902F0700070471AB14369FC
:100A10000B43436102E043698B434361704730B548
:100A2000024600200023146824F0020414601468B5
:100A300044F00104146000E05B1C546804F00104FD
:100A40001CB94FF6FF74A342F6D1546804F00104B8
:100A50000CB900206CE08C79012C04D1146844F0AE
:100A60008004146003E0146824F080041460CC79DE
:100A7000012C04D1146844F04004146003E01468AD
:100A800024F0400414600C7A012C04D1146844F062
:100A90002004146003E0146824F0200414604C7AED
:100AA000012C04D1146844F01004146003E01468AD
:100AB00024F0100414608C7A012C04D1146844F0E2
:100AC0000804146003E0146824F008041460CC7A6D
:100AD000012C04D1146844F00404146003E0146889
:100AE00024F0040414608C78A407CD7844EA0564EB
:100AF0000D7944EA05444D7944EA05540D886D1E8C
:100B00002C43D461146824F001041460002300E035
:100B10005B1C546804F001041CB14FF6FF74A3423F
:100B2000F6D1546804F001040CB1002000E001206B
:100B300030BD10B500F5D87303EB01131B6803F04B
:100B400004031372137A53B900F5D87303EB01133E
:100B50001B6840F2FF7404EA5353136009E000F588
:100B6000D87303EB01131B686FF0604404EAD303EE
:100B7000536000F5D87303EB01131B6803F0020305
:100B8000537200F5D87303EB01135B6803F00F0396
:100B9000937200F5D87303EB01135B681B0AD374DF
:100BA00000F5D87303EB01139B68D37200F5D8737B
:100BB00003EB01139B681C0A147300F5D87303EB55
:100BC00001139B681C0C547300F5D87303EB0113DD
:100BD0009B681B0E937300F5D87303EB0113DB685E
:100BE000D37300F5D87303EB0113DB681C0A14748C
:100BF00000F5D87303EB0113DB681C0C547400F58B
:100C0000D87303EB0113DB681B0E937421B9C3681F
:100C100043F02003C36003E0036943F02003036152
:100C200010BD00218171C171017241728172C17266
:100C30008170C17003210171022141710121018084
:100C4000704710B502460B460024002102E0505CBC
:100C50000444491C9942FAD3E0B210BD10B50246D3
:100C60000B460024002102E0505C0444491C9942D8
:100C7000FAD3E0B210BD10B502460B4600240021A5
:100C800002E0505C0444491C9942FAD3E0B210BD22
:100C900021B1026842F00102026004E002684FF6EE
:100CA000FE731A400260704701684FF6FE721140F1
:100CB00001600021016041608160C1604B49884250
:100CC00008D14A490839496841F00F01474A083AB2
:100CD00051608AE045491431884208D143490839B6
:100CE000496841F0F001414A083A51607DE03F49CE
:100CF0002831884208D13D490839496841F470617A
:100D00003A4A083A516070E038493C31884208D18B
:100D100036490839496841F47041344A083A51600B
:100D200063E032495031884208D130490839496876
:100D300041F470212D4A083A516056E02B49643144
:100D4000884208D129490839496841F47001274A85
:100D5000083A516049E025497831884208D1234951
:100D60000839496841F07061204A083A51603CE016
:100D70001F49884206D1011F096841F00F01021F77
:100D8000116032E01A491431884208D11849091F0C
:100D9000096841F0F001164A121F116025E014495C
:100DA0002831884208D11249091F096841F470614D
:100DB0000F4A121F116018E00D493C31884208D1DA
:100DC0000B49091F096841F47041094A121F11605B
:100DD0000BE007495031884207D10549091F0968CE
:100DE00041F47021024A121F11607047080002404E
:100DF000080402400146486880B2704710B50022DE
:100E0000026847F6F0739A430C6A8B6823430C69B7
:100E100023434C6923438C692343CC6923434C6AA5
:100E200023438C6A23431A430260CB6843600B68F8
:100E300083604B68C36010BD4160704770472DE907
:100E4000F041024600250026002000230024002750
:100E500091F803C00CF00F0591F803C00CF0100CD2
:100E6000BCF1000F03D091F802C04CEA050591F8DF
:100E700000C0BCF1000F31D0146800202BE04FF00F
:100E8000010C0CFA00F3B1F800C00CEA03069E4214
:100E900020D183004FF00F0C0CFA03F7BC4305FA86
:100EA00003FC4CEA040491F803C0BCF1280F06D1FE
:100EB0004FF0010C0CFA00FCC2F814C00AE091F8E3
:100EC00003C0BCF1480F05D14FF0010C0CFA00FC37
:100ED000C2F810C0401C0828D1D31460B1F800C07B
:100EE000BCF1FF0F34DD546800202EE000F1080C47
:100EF0004FF0010808FA0CF3B1F800C00CEA030641
:100F00009E4221D183004FF00F0C0CFA03F7BC4333
:100F100005FA03FC4CEA040491F803C0BCF1280F65
:100F200005D100F1080C08FA0CF8C2F8148091F809
:100F300003C0BCF1480F07D100F1080C4FF00108C5
:100F400008FA0CF8C2F81080401C0828CED3546070
:100F5000BDE8F0810161704700BFFEE70146C1F3C3
:100F60000F2070470121034A1170417B024A117022
:100F7000704700008600002087000020C37B027CB1
:100F800003EB0223427C03EB0243827C03EB02610E
:100F9000C822B1FBF2F2094B1A60C37A027B03EB61
:100FA0000223427B03EB0243827B03EB0261C822F4
:100FB000B1FBF2F2024B1A60704700008C00002077
:100FC00090000020017B014A1170704788000020CA
:100FD000827BC17B02EB0121014A11807047000036
:100FE0008A000020017B014A1170704789000020AF
:100FF00070470000C37B027C03EB0223427C03EBBF
:101000000243827C03EB02618A08084B1A60C37AB0
:10101000027B03EB0223427B03EB0243827B03EB65
:1010200002618A08024B1A60704700009800002095
:10103000940000200121034A1170817C024A117042
:1010400070470000840000208500002070B5044631
:101050000D46204600F0DDF86079A179884204D180
:10106000204600F0E0F8002070BD627902EB8202B9
:10107000A06800EB820114222846FFF716FB607976
:10108000401C217990FBF1F201FB120060712046B7
:1010900000F0C9F80120E7E72DE9F04104460E46CB
:1010A00015461F461CB116B1012D00DB1FB94FF0CC
:1010B000FF30BDE8F081257100206071A071681ECD
:1010C000E071A6603946204600F094F80020F0E771
:1010D00070B504460D46204600F09BF8A079401CF0
:1010E000217990FBF1F201FB12006179884206D16F
:1010F0000EA0FFF7EFF8204600F095F870BDA2793A
:1011000002EB8202A16801EB820014222946FFF75C
:10111000CCFAA079401C217990FBF1F201FB12007E
:10112000A071204600F07FF800BFE7E766756C6CA1
:10113000200D0A0010B50FA0FFF7CCF8134800F0FF
:10114000A7F8134800F09CF8124800F01FFA00F0CE
:10115000FFF800F089F9104800F042F901F0F6F9C3
:101160000E4801F093F901F06DF801F01BF9002031
:1011700010BD00004A7A4170704D61696E496E6918
:1011800074207374617274200D0A00001924000821
:1011900021150008C5130008C9250008B922000858
:1011A00010B5034903A0FFF795F800F085FC10BDCA
:1011B000DA4800082573200A0000000010B5034932
:1011C00003A0FFF787F800F097FC10BDCE48000899
:1011D0002573200A0000000010B500F0E3FB10BDED
:1011E00010B500F01BFD002010BD10B500F026FD6D
:1011F000002010BD7CB504460D4601A9284600F02C
:1012000041FF9DF80400694601F01CFB20600020AE
:101210007CBD38B504466A460021206801F05CFBBD
:101220009DF8000038BD10B50446206801F070FC40
:1012300010BD10B50446002001F060FD206020685C
:1012400010B94FF0FF3010BD20680078032802D09D
:101250004FF0FF30F7E70020F5E710B504462068AF
:1012600001F0E8FD002010BD38B504460D466A4681
:101270002946206801F068FD9DF8000038BD000097
:101280000146024801600020704700006401002010
:101290000146024801600020704700006C010020F8
:1012A0002DE9F04186B080460C4615461E460027C3
:1012B0002146204600F028FF002803DA781E06B0F9
:1012C000BDE8F08101220023D4E90901CDE9033210
:1012D000CDE90101A08D009094F82E3031462846CA
:1012E000226A01F0F9FD0020E9E70020704770B59F
:1012F00005460C46E1B2284600F02AFD002070BDEC
:1013000070B505460C46552020701120607001F024
:10131000C7F9A070287A40B1687A00F00F0040F059
:101320001000E0706868606005E0687A00F00F0007
:10133000E07028686060D5F80B00A060D5F80F0059
:10134000E06010212046FFF796FC2074002070BD5D
:1013500010B50E48FFF76DFF04460CB1204610BDD6
:101360000BA314220D490E48FFF796FE00230D4AE9
:101370000D490E48FFF794FF04460CB12046EEE7F6
:101380000BA0FEF7A7FF0020E9E700000400002003
:1013900063616E70617273650000000008020020D6
:1013A00098030020F1130008100000200000002026
:1013B0004A7A5F43616E50617273655F496E69740A
:1013C0000A0D000010B5044621460348FFF780FED1
:1013D0000248FFF742FF10BD9803002004000020E0
:1013E0000146024801600020704700000C00002008
:1013F00010B586B0044612A0FEF76CFF1AE000217B
:101400001548FFF731FF1548007800B913E00BE0ED
:1014100001A800F06DF9012806D11148006818B143
:1014200001A80F490968884701A90E48FFF70EFE79
:101430000028EDD1E3E700BFFFF757FF06B010BD6E
:101440004A7A5F43616E50617273655F5461736B7A
:1014500046756E630D0A000004000020080000209D
:101460000C0000209803002010B51148FFF7E1FEA2
:1014700004460CB1204610BD00230E4A0E490F4809
:10148000FFF70EFF04460CB12046F4E714210C4888
:10149000FFF75FF901200B49087000200A49087026
:1014A00001200A4908600AA0FEF714FF0020E2E7C5
:1014B00044000020B915000854000020400000201E
:1014C000A403002048000020490000205000002014
:1014D0004A7A5F43616E526561645F496E69740D5B
:1014E0000A00000038B500200090684600F04EF970
:1014F000044614B94FF0FF3038BD00F041F90546FD
:101500000020F9E710B50548006818B9FFF756FE46
:10151000024908600148006810BD0000500000202A
:1015200010B504460948007858B9012007490870E9
:10153000142221460648FFF7B8F80648FFF78DFE4B
:1015400002E005A0FEF7C6FE10BD00004900002025
:10155000A4030020440000204A7A5F43616E526574
:1015600061645F53656E644672616D65206E6F7471
:101570002066696E6973686564212121212121211A
:101580002121212121212121210A00000146024897
:1015900001600020704700004C00002010B5054895
:1015A0000068012803D1FFF7FBFD024908600148EC
:1015B000006810BD5000002070B50646002414A03D
:1015C000FEF788FE1EE00020174908704FF4FA71FC
:1015D0001648FFF749FE05463DB91548006860B159
:1015E000144813490968884707E0FFF7F5FD0446EA
:1015F0002246114911A0FEF76DFE1648007800B989
:1016000001E000BFDFE700BFFFF76FFE70BD000025
:101610004A7A5F43616E526561645F5461736B46E1
:10162000756E630D0A000000490000204400002090
:101630004C000020A40300205048000825732020FF
:101640006572726F72636F64652025642020200DBF
:101650000A0000004800002010B504465520207004
:101660001820607001F012F8A0701648007818B1C8
:1016700015480078E07008E01448007818B1144864
:101680000078E07001E0FF20E07012480088A08040
:1016900011480078A07111480078E0711048006886
:1016A000A06010480068E0600F48006820610F48A3
:1016B0000068606118212046FFF7C3FA20760020F9
:1016C00010BD00008400002085000020860000205E
:1016D000870000208A000020880000208900002068
:1016E0008C00002090000020940000209800002032
:1016F0002DE9F0410446002566683046FFF72EFCD0
:1017000007464FF66C61781A8F4213D00BDCB7F5A1
:10171000704F17D06FF470403844B8B1022819D018
:10172000032827D11AE055281CD07D281ED08528F3
:1017300020D103E02046FFF77DFC1DE02046FFF7A7
:1017400011FC19E02046FFF753FC15E02046FFF797
:1017500039FC11E02046FFF745FC0DE02046FFF77D
:1017600037FC09E02046FFF709FC05E02046FFF7BB
:1017700041FC01E0012500BF00BF2846BDE8F08123
:1017800001480078704700009E00002030B50346F5
:101790000021002200BF2AE001EB4100164C04EBBF
:1017A0008000007A00B921E001EB4100124C04EB0B
:1017B0008000007A02EB4204104D05EB8404207295
:1017C00001EB41000C4C04EB8000406802EB42044A
:1017D00005EB8404606001EB4100074C54F82000E5
:1017E00002EB420445F82400521C00BF491C0D299D
:1017F000D2D31A70014830BD54040020B803002031
:1018000001460C2901D1182902D04FF0FF30704752
:10181000014801700020FAE79E00002010B5024642
:101820000D2A02D34FF0FF3010BD087A02EB4203BD
:10183000084C04EB8303187202EB4203086844F877
:10184000230002EB420304EB830348685860002046
:10185000EAE700005404002070B505460C46601EFF
:10186000C1B22846FFF7FAF9295D884201D101206B
:1018700070BD601EC1B22846FFF7F0F906462A5D2A
:101880003346034903A0FEF725FD0020F0E70000E2
:10189000644800082573206572726F7220256420E9
:1018A000256420200A00000002460AB90020704783
:1018B000505C552801D10120F9E70020F7E70246E6
:1018C00000230AB9002070471078087008780F28A4
:1018D00002D0112802D100BF012301E0002300BF84
:1018E00000BF1846EFE710B586B0044654F8020F63
:1018F000039060680490A068A41E05909DF80D00F8
:101900000D2803DB4FF0FF3006B010BD9DF80E0030
:101910000C2803D09DF80E000E2803D19DF80E0070
:10192000FFF76EFFFFF73AFE0498009005980190CC
:101930009DF80F008DF808009DF80D006946FFF72F
:101940006DFF9DF80C00022803D1FFF7DBFDFFF7C8
:10195000C9FD0020D8E7000008B50121052002F0EC
:10196000FDF90121480602F0D9F94FF40060ADF805
:10197000000048208DF8030069460948FFF75FFA28
:101980004FF48050ADF8000018208DF803000320BC
:101990008DF8020069460248FFF751FA08BD0000C1
:1019A0000008014010B500240248FFF729F804465A
:1019B000204610BD0064004001B586B01E48FFF708
:1019C00003F803A8FFF72DF900208DF812008DF819
:1019D00013008DF814008DF815008DF816008DF8A1
:1019E00017008DF80E009DF818008DF80F009DF877
:1019F00019008DF810009DF81A008DF811009DF85F
:101A00001B00ADF80C0003A90B48FFF708F80122F2
:101A100002210948FEF7FAFF9DF81B009DF81A10F5
:101A2000CDE900109DF819309DF81820034904A055
:101A3000FEF750FC07B000BD00640040E748000816
:101A400025732043414E5F534A57203A2564204373
:101A5000414E5F4253313A25642043414E5F425329
:101A600032203A2564202043414E5F5072657363F3
:101A7000616C65723A2564200D0A0000F8B50446D1
:101A80000D46164600214FF0006000F057FE084852
:101A900004700848057014208DF800008DF801408E
:101AA0008DF802508DF80360684600F005FEF8BD21
:101AB000600100206101002038B50024FEF7AEFB74
:101AC000044614208DF80000094800788DF80100C4
:101AD000084800788DF8020000208DF80300684661
:101AE00000F0EAFD2046FEF79DFB002038BD000017
:101AF000600100206101002038B50024FEF78EFB54
:101B0000044614208DF80000094800788DF8010083
:101B1000084800788DF8020001208DF8030068461F
:101B200000F0CAFD2046FEF77DFB012038BD000015
:101B3000600100206101002008B5032211464FF426
:101B4000E13002F005FBFFF707FF012211460020FC
:101B5000FFF794FF00208DF8000002208DF80100AF
:101B600001208DF8020018208DF803000098FFF77F
:101B700023FF032202214FF4964000F001F90223D3
:101B8000012241F61F41632000F06AF8002000F0B6
:101B900097F800F001F808BD08B50121242002F0F3
:101BA000DDF80121102002F0D9F84FF40050ADF813
:101BB000000010208DF8030003208DF80200694614
:101BC0001348FFF73CF94FF400511148FFF7C2F9F1
:101BD0004FF48070ADF8000010208DF80300032052
:101BE0008DF8020069460B48FFF729F94FF4807120
:101BF0000848FFF7AFF90420ADF800006946064831
:101C0000FFF71DF904210448FFF7A4F908BD0000FF
:101C10000010014000080140001401400120044967
:101C200008600449C1F8A00100200349086070471A
:101C3000B40122420000214288812242002005494D
:101C4000086001200449C1F88801002003490860A8
:101C500070470000A001214200802242B4012242CC
:101C60002DE9FF4107460C4615461E46012104207A
:101C700002F054F8ADF80470ADF800400020ADF863
:101C80000600ADF8020069460C4802F00FFA012286
:101C900011460A4802F0FEF91E208DF80C008DF85E
:101CA0000D508DF80E6001208DF80F0003A800F094
:101CB00003FD002000F004F8BDE8FF8100080040AB
:101CC00010B5044644B10021064802F0ECF90121A8
:101CD000044802F0C2F903E00021024802F0BDF915
:101CE00010BD00000008004070B58CB006460C46E0
:101CF00015460121084602F001F83046FEF7D4FFF0
:101D000001940295102003900020049005908020FB
:101D1000069000200790089009904FF480500A9098
:101D200000200B9001A93046FFF768F80CB070BD99
:101D300070B504460D4600212046FEF7A9FF29464E
:101D40002046FFF779F801212046FEF7A1FF70BD7C
:101D500070B504460D462A4621460748FEF760FC4A
:101D600029460648FFF7E4FF00BF0448FFF742F8A2
:101D70000028FAD170BD0000E81200208000024067
:101D800070B586B006460C4615460121042001F0C8
:101D9000E5FF0121480401F0C1FF2A4802F0BAFA28
:101DA0000420ADF8100003208DF8120018208DF8E3
:101DB000130004A92448FFF742F80820ADF81000EA
:101DC00004208DF8130004A91F48FFF738F8009687
:101DD0000020ADF80400ADF80600ADF80800ADF83D
:101DE0000C000C20ADF80A006946164802F030FBE2
:101DF00001228021134802F083FA144A1149091D77
:101E00001348FFF771FF01210E4802F06DFA01221D
:101E100040F225510B4802F0F5FA26208DF8140007
:101E20008DF815408DF8165001208DF8170005A883
:101E300000F042FC002007490880FFF741FF06B090
:101E400070BD00000044004000080140E81200207E
:101E5000800002406801002070B504460D4604F180
:101E60001400FFF7D6F9E068401BE0606068284482
:101E7000A168B0FBF1F201FB1200606004F11400F4
:101E8000FFF7D1F970BD00002DE9F04104460E4680
:101E9000154634B91E491FA0FEF71CFA0020BDE804
:101EA000F081206928B91A491FA0FEF713FA002013
:101EB000F5E704F11400FFF7ACF9E068A84200D29E
:101EC000E56860682844A168884213D3D4E90130EA
:101ED000C21A2069C1183046FEF7A2FB63682B4482
:101EE000A768DA1B3B466768DB1B98192169FEF778
:101EF00097FB06E06268206981182A463046FEF7A3
:101F00008FFB04F11400FFF78EF92846C7E70000A5
:101F1000994800082025732020696E666F20697338
:101F2000204E554C4C0D0A002025732020696E660A
:101F30006F20627566206973204E554C4C0D0A0067
:101F40002DE9F04104460D4616461F4615B908A076
:101F5000FEF7C0F92561002060602060E060A660A7
:101F6000394604F11400FFF745F90020BDE8F0817F
:101F70004A7A5F52696E676275666665725F496E1E
:101F8000697420627566206973204E554C4C0A00B6
:101F90002DE9F04104460E4615463CB9284929A0D2
:101FA000FEF798F94FF0FF30BDE8F081206908B1E5
:101FB000A06830B9224928A0FEF78CF94FF0FF3015
:101FC000F2E7002D06DC1E4928A0FEF783F94FF04A
:101FD000FF30E9E704F11400FFF71BF920682844FB
:101FE000A168884213D92368A168CA1A2169C81850
:101FF0003146FEF715FB23682B44A768DA1B3B46E6
:102000002768DB1B99192069FEF70AFB06E02268A6
:10201000216988182A463146FEF702FBE068284409
:10202000E06020682844A168B0FBF1F201FB1200D7
:10203000206004F11400FFF7F6F80020B4E7000078
:102040007B4800082025732020696E666F20697325
:10205000204E554C4C0D0A002025732020646174DD
:1020600061206973204E554C4C0D0A0020257320C9
:10207000206C656E2069732077726F6E67200D0A81
:102080000000000070B505460C4605B114B94FF0CC
:10209000FF3070BD0EA12846FEF782FB10B9042068
:1020A00020700EE00DA12846FEF77AFB10B906203D
:1020B000207006E00CA12846FEF772FB08B9052047
:1020C0002070227829460BA0FEF704F90020E0E7F3
:1020D00063616E70617273650000000075617274F7
:1020E00070617273650000007561727473656E646F
:1020F000000000006E616D65202573207072696FAD
:10210000202564200D0A000070B505460C4605B177
:1021100014B94FF0FF3070BD2DA12846FEF740FBEB
:1021200050B92E4820620B2084F82E00A0852C4840
:1021300060628020A06242E02AA12846FEF730FBC0
:1021400050B92B4820620A2084F82E00A085294827
:1021500060628020A06232E027A12846FEF720FBC3
:1021600050B928482062092084F82E00A08526480E
:1021700060626020A06222E024A12846FEF710FBE6
:1021800050B924482062072084F82E00A0852248F8
:1021900060628020A06212E020A12846FEF700FBCA
:1021A00050B921482062082084F82E00A0851F48DD
:1021B00060626020A06202E04FF0FF30ABE794F86D
:1021C0002E2029461AA0FEF785F80020A3E700007C
:1021D000756172747265616400000000EC08002093
:1021E000F006002075617274706172736500000002
:1021F000EC060020F00400207561727473656E6453
:10220000000000006C0A0020F008002063616E727C
:10221000656164006C0C0020700A002063616E70C0
:102220006172736500000000EC0D0020700C00204E
:102230006E616D65202573207072696F20256420A2
:102240000D0A000010B50E48FEF7F3FF04460CB16E
:10225000204610BD00230B4A0B490C48FFF720F81D
:1022600004460CB12046F4E709A34FF400720B4971
:102270000B48FFF765FE0BA0FEF72CF80020E8E7FF
:10228000A4000020D9220008AC000020A0000020FB
:10229000756172747061727365000000F00D00204A
:1022A000F01000204A7A5F55617274506172736554
:1022B0005F496E69740A0D0070B504460D462A46E2
:1022C00021460348FFF764FE0248FEF7C6FF70BDD3
:1022D000F0100020A4000020F8B50646002427A036
:1022E000FDF7F8FF44E000212A48FEF7BDFF2A4829
:1022F000007800B93DE04FF4807228492848FFF784
:10230000C3FD054600242CE021462448FFF7CCFA03
:1023100000B925E0601CA84200DB24E01F4A611CD4
:1023200050186946FFF7CBFAC8B19DF80000204469
:10233000A84200DD17E09DF80020511E174A101931
:10234000FFF78AFA58B19DF800000F2803D113490E
:102350000819FFF7C8FA9DF80000401E044400BFAA
:10236000641CAC42D0DB00BF21460D48FFF774FD72
:10237000B9E700BFFEF7B9FFF8BD00004A7A5F5524
:1023800061727450617273655F5461736B46756EF0
:10239000630D0A00A4000020A8000020F00F002018
:1023A000F010002010B51048FEF743FF04460CB1B2
:1023B000204610BD00230D4A0D490E48FEF770FF60
:1023C00004460CB12046F4E7C8210B48FEF79FF9FC
:1023D00001200A49087000200949087009A0FDF78A
:1023E00079FF0020E5E70000E00000209D240008C0
:1023F000F0000020DC00002008110020E400002094
:10240000E50000204A7A5F55617274526561645F2D
:10241000496E69740A0D000070B505460C460A48FD
:10242000007868B901200849087022462946074803
:10243000FEF7F6F8064804600648FEF70EFF02E0D5
:1024400005A0FDF747FF70BDE50000200811002042
:10245000EC000020E00000204A7A5F43616E526584
:1024600061645F53656E644672616D65206E6F7462
:102470002066696E6973686564212121212121210B
:102480002121212121212121210A00000146024888
:102490000160002070470000E800002070B505468C
:1024A00019A0FDF717FF2AE000211D48FEF7DCFE0A
:1024B0001C491DA0FDF70EFF002405E01C48015D2E
:1024C0001CA0FDF707FF641C1C4800688442F5D37C
:1024D0001A48006810B111A0FDF7FCFE184800680A
:1024E00028B1164801681248154A12689047002022
:1024F000144908701448007800B901E000BFD3E720
:1025000000BFFEF7F2FE70BD4A7A5F5561727452E9
:102510006561645F5461736B46756E630D0A0000FC
:10252000E0000020B94800082573200D0A000000D3
:10253000081100203078253032782000EC0000208F
:10254000E8000020E5000020E400002010B50F485E
:10255000FEF76FFE04460CB1204610BD0CA30A2204
:102560000E490F48FEF798FD00230E4A0E490F480A
:10257000FEF796FE04460CB12046EEE701200C491A
:1025800008700CA0FDF7A6FE0020E6E7240100205D
:102590007561727473656E6400000000D0110020D4
:1025A00098120020E52500082C01002020010020C1
:1025B000280100204A7A5F5561727453656E645F2A
:1025C000496E6974200D0A0010B50446214603487F
:1025D000FEF77EFD0248FEF740FE10BD9812002077
:1025E0002401002010B504461AA0FDF773FE2BE06D
:1025F000C8211E48FEF738FE07E01D491D48FEF7BA
:102600007FFE11211A48FEF772FE1A491A48FEF79A
:102610001DFD0028F1D11948FFF71EF819211748B0
:10262000FEF765FE1648006828B1FEF7DEFD0020C3
:102630001349086004E0012011490860FEF7D0FD4D
:102640001048007800B900E0D2E700BFFEF74DFE69
:1026500010BD00004A7A5F5561727453656E645F05
:102660005461736B46756E630D0A000024010020EF
:10267000B8120020A412002098120020CC120020D2
:102680005C0100202801002000BFFEE70349087814
:102690000978491C014A1170704700009C00002015
:1026A000034908780978491C014A117070470000F5
:1026B0009F0000207047000070B5002100230F220A
:1026C000C47804B3154C246804F4E064C4F5E064F1
:1026D000210AC1F10403CA40447804FA03F1847862
:1026E0001440214309010E4C0678A155047804F0EA
:1026F0001F050124AC4005786D11AD0005F1E02502
:10270000C5F8004109E0047804F01F050124AC403D
:10271000044D0678761145F8264070BD0CED00E0BA
:1027200000E400E080E100E002490143024A116058
:10273000704700000000FA050CED00E0024A0A4074
:102740000243024B1A60704780FFFF1F08ED00E054
:1027500010B500F015F801F055F801F07DF801F022
:102760009DF801F025F800F0F7FF01F031F901F0D4
:10277000D5F801F0FBF800F02FFE00F007F810BDCF
:102780000020014908807047E401002070470000E4
:1027900006480078012808D105480078FF2804D2AF
:1027A00003480078401C024908707047AA010020C5
:1027B0009D01002010B500241A480078012830D16E
:1027C000FDF72CFD04461848007820B11648007823
:1027D000401E1549087014480078F8B9134800786D
:1027E000E0B901F057F912481249097850F8210070
:1027F000114908600F4800781049097888420DD0C7
:102800000D480068806B401C0B49096888630C48C0
:102810000068401C0A490860FDF71FFD2046FDF7CF
:1028200001FD10BDAA0100209D0100209E01002095
:10283000CC190020A0010020B80100209F01002039
:10284000840100202DE9F04105460E4600271F486F
:10285000007820B1102030700020BDE8F081FDF735
:10286000DDFC07461A4850F8250030B13846FDF720
:10287000D9FC282030700020EFE70120144941F8EE
:102880002500144804684CB9002041F8250038465A
:10289000FDF7C8FC042030702046DEE70D480068D4
:1028A00040680C4908603846FDF7BCFC04202070E5
:1028B000FF2040EA0520208100206060204600F0D3
:1028C0003DFF002030702046C7E700009D0100203A
:1028D000CC190020880100202DE9F74F82B0054671
:1028E0001746002001902878042804D00120387071
:1028F00005B0BDE8F08F8048007810B10220387034
:10290000F6E77E48007810B10D203870F0E7FDF74B
:1029100085FC019028894FEA2029287AFF281FD1B9
:10292000288900F47F40288128897549096891F831
:102930003210084328817248006868607048006857
:1029400090F83200484505DC0198FDF76BFC7820D3
:10295000387004E00198FDF765FC00203870C7E787
:1029600095F808B06C6894F8320048457ADD644800
:10297000006890F83200584574DA94F83480614861
:1029800010F8080094F835100840B0B15D4810F810
:10299000080094F8351088435A4901F808000846A1
:1029A00010F8080030B994F836105748007888437A
:1029B000554908704FF0010A19E0E669AEB194F884
:1029C000348006F10B0010F8080094F835108843A5
:1029D00006F10B0101F80800084610F8080020B9BC
:1029E000B07A94F836108843B0724FF0000A04F8B9
:1029F000329F2078C010A070207800F0070060702F
:102A0000A178012088402071617801208840E07021
:102A1000323CBAF1010F10D13434A0783A49097828
:102A200008433949087020783649085C61780843C2
:102A300014F83419334A505411E0E6697EB1B07A83
:102A40003434A1780843B072217806F10B00405C61
:102A50006178084314F8342906F10B0188542B4897
:102A600040F829402648006890F8300040F01000F7
:102A70002349096881F8300000202149096881F85C
:102A800031001F4903980968C862284600F018FE03
:102A90000198FDF7C7FB00F0C3FFFDF7BFFB0190F6
:102AA0001748006890F8310020B1012809D00228A9
:102AB00006D102E0002038700BE00E20387008E0EC
:102AC00000BF29460E48006800F0E4FD0A20387077
:102AD00000BF00BF00200A49096881F8300008499A
:102AE000096881F8310006490968C8610198FDF755
:102AF00099FB00BFFCE600009D0100209E01002024
:102B0000B0010020A2010020A1010020CC1900206A
:102B10002DE9F041044600272C48007810B105202B
:102B2000BDE8F0812078042801D00120F8E7FDF706
:102B300075FB074620890612257A254960680968D1
:102B4000884204D03846FDF76DFB6420E8E7204852
:102B5000006890F83200B04204D129461C48006851
:102B600000F03AF801201B4941F82600A07A08B38A
:102B7000002310221946204600F04AFD0546208910
:102B800000F47F402081208928432081114850F89B
:102B900025006060B54206DC3846FDF743FB00F0D7
:102BA0003FFF7820BCE73846FDF73CFB00F038FFDC
:102BB0000020B5E7208940F0FF0020810020606000
:102BC0003846FDF72FFB0020AAE700009D010020FA
:102BD000B0010020CC19002030B590F834201B4BF8
:102BE0009B5C90F83540A343184CA35423469B5C50
:102BF00033B990F83640164B1B78A343144C23701E
:102C000000F8321F134B1970C1F3C203837001F037
:102C10000703437084780123A340037144780123A0
:102C2000A340C37003790A4C24782343084C2370D3
:102C30008378064CE35CC478234384783238034DB0
:102C40002B55054B43F8210030BD0000A2010020A8
:102C5000A10100209F010020CC19002010B5002404
:102C60000B480078012811D1FDF7D8FA044609482D
:102C7000007840B908480078FF2804D20648007858
:102C8000401C054908702046FDF7CCFA10BD000035
:102C9000AA0100209D0100209E01002010B5002403
:102CA00013480078012821D1FDF7B8FA04461148ED
:102CB0000078C0B10F480078401E0E4908700846E1
:102CC000007860B90C48007828B92046FDF7AAFAC8
:102CD00000F0A6FE0AE02046FDF7A4FA06E0204632
:102CE000FDF7A0FA02E02046FDF79CFA10BD0000B7
:102CF000AA0100209E0100209D01002070B505461C
:102D000000260F48007808B1002070BDFDF786FA54
:102D100006460C480468006820B10A48006840680C
:102D2000084908603046FDF77DFA3CB10320207069
:102D3000258100206060204600F000FD2046E4E789
:102D40009D010020880100202DE9F04105460E4636
:102D5000144600272878032803D001202070BDE8FE
:102D6000F0813148007810B102202070F7E72F4839
:102D7000007810B10D202070F1E7FDF74FFA0746FB
:102D8000288940B12889401E28813846FDF74AFA33
:102D900000202070E3E72648006890F8300040F0FB
:102DA00001002349096881F83000002020490968A2
:102DB00081F831001E480068C662284600F080FC99
:102DC0003846FDF72FFA00F02BFEFDF727FA0746ED
:102DD0001748006890F8310020B1012809D0022876
:102DE00006D102E0002020700BE00E20207008E0E9
:102DF00000BF29460E48006800F04CFC0A202070F5
:102E000000BF00BF00200A49096881F83000084966
:102E1000096881F8310006490968C8613846FDF73C
:102E200001FA00BF9BE700009D0100209E010020E9
:102E3000B001002070B5044600252078032801D099
:102E4000012070BDFDF7EAF90546A07A60B10023C4
:102E500001221946204600F0DBFB2846FDF7E2F987
:102E600000F0DEFD0020ECE720894FF6FF7188427C
:102E700007D22089401C20812846FDF7D3F9002085
:102E8000DFE72846FDF7CEF93320DAE710B50B4827
:102E9000007890B900F0FEFD0948007809490870F3
:102EA00009480749097850F8210008490860084690
:102EB000006807490860FDF7B8F910BDAA010020B5
:102EC000A00100209F010020CC190020B8010020A3
:102ED000B0010020704700002DE9F04F85B0814619
:102EE0008A4693461C46DDE90F78129D0020039028
:102EF000FDF794F903902348007830B10398FDF76B
:102F000091F93C2005B0BDE8F08F1F4850F824002F
:102F100088BB01201C4941F824000398FDF782F981
:102F20002A464146384600F0DBFE2B465A465146BB
:102F3000484600F0AFF804901198CDE90080029562
:102F40003A4620460E9B049900F0BAFD064636B973
:102F50000E48007801280CD100F062FD09E0FDF771
:102F60005DF903900020084941F824000398FDF71B
:102F700059F93046C6E7FFE70398FDF753F92820D3
:102F8000C0E700009D010020CC190020AA0100200C
:102F9000704770472DE9F04106460F4614464FF042
:102FA00000081548007818B112202070BDE8F081A3
:102FB000FDF734F98046FF2E03D11048006890F8E1
:102FC00032600F4850F826502DB94046FDF72AF9D7
:102FD00043202070EAE7012D05D14046FDF722F994
:102FE00043202070E2E7EF644046FDF71BF9002024
:102FF000207000BFDAE700009D010020B001002032
:10300000CC190020704700002DE9F04707460D4617
:103010004FF0000A002028606860FDF7FFF8824644
:10302000FF2F03D11948006890F83270184850F803
:1030300027402CB95046FDF7F5F84320BDE8F0874E
:10304000012C04D15046FDF7EDF84320F6E7207C33
:1030500000F0010020B95046FDF7E4F84520EDE707
:103060000026D4F80C90D4F808805046FDF7DAF822
:1030700000E0761C58F8041B0029FAD0B000286044
:10308000A9EB0600800068600020D7E7B0010020AF
:10309000CC19002070B5044610464FF080750560CD
:1030A000051F28462C606FF00106051F28462E607C
:1030B0004FF01236051F28462E604FF00336051FCD
:1030C00028462E604FF00236051F28462E607610E7
:1030D000051F28462E60051F284629604FF011362F
:1030E000051F28462E604FF01036051F28462E601B
:1030F0004FF00936051F28462E604FF00836051F91
:1031000028462E604FF00736051F28462E604FF0E8
:103110000636051F28462E604FF00536051F284647
:103120002E604FF00436051F28462E6070BD00004B
:103130002DE9F04105464FF00008FDF76FF8804695
:10314000FF2D05D12048006890F83250012608E094
:103150001D48006890F83200A84201D1012600E025
:1031600000261A4850F825402CB94046FDF75AF879
:103170004820BDE8F081012C04D14046FDF752F80B
:103180004320F6E794F834701148C05D94F8351088
:1031900088430F49C8550846C05D30B994F83610C9
:1031A0000C48007888430B49087094F8300040F0D0
:1031B000080084F830004046FDF734F8012E01D1B4
:1031C00000F02EFC0020D4E7B0010020CC19002034
:1031D000A2010020A10100207047000070B5054643
:1031E00000261748007800B170BD1648007800B17D
:1031F000FAE71DB3FDF712F806461348006890F889
:1032000034401248005D1049096891F83510884330
:103210000E4908550846005D40B90B48006890F813
:1032200036100B4800788843094908700648006842
:10323000C5623046FCF7F6FF00F0F2FB00BFD3E7B3
:103240009D0100209E010020B0010020A20100206D
:10325000A10100202DE9F04105460E4617461C4607
:103260001248007810B15520BDE8F0811048007870
:1032700008B13220F8E74FF47A7060434FF47A7166
:10328000B0FBF1F14FF461606843C6EB061200EB4E
:103290008200384400EB4002C2EBC01001EBC008D2
:1032A0004046FFF79BFF0020DEE700009D01002065
:1032B0009E01002070B5002600F072F8FCF7AEFF0A
:1032C000064631480068401C2F4908603046FCF72C
:1032D000A9FF2E480078012853D12D48007820B14D
:1032E000012804D0022809D103E001250BE00025C4
:1032F00009E0012501202649087004E0012500208D
:103300002349087000BF00BF05B970BD214804689B
:1033100033E0FCF783FF0646E06A50B3E06A401EE4
:10332000E062E06A28BB94F8300000F0370040B15A
:1033300014F8300F00F0C800207001206070303C9D
:1033400002E0002084F8310094F8300000F008001A
:1033500078B93434A0781049097808430E490870C8
:1033600020780E49085C6178084314F834190B4A38
:10337000505464693046FCF755FF94F832003F28FA
:10338000C7D100BFC1E70000C8010020AA0100208A
:10339000C0010020BC010020A1010020A2010020EA
:1033A00010B507480088401C054908800846008879
:1033B0000A2803D30020088000F004F810BD0000A4
:1033C000E401002010B503480068FFF733FD044610
:1033D000204610BDD80100202DE9F0414FF42071A6
:1033E000224800F0EBFA4021214800F0E7FA0025DE
:1033F00014E0681C86B205EB85001C4901EBC00493
:1034000006EB860001EBC00764202070002084F8E2
:103410002500E76017A02062681C85B20F2DE8D355
:1034200005EB8500114901EBC004642020700020E9
:1034300084F82500E0600FA0206200200E4908609B
:103440000E49088010200E49088008480D49086080
:103450000120FFF753FC0C4908600020FFF74EFCE9
:103460000A49086000F014F8BDE8F081341F00201C
:10347000B42300203F000000D0010020CE01002036
:10348000CC010020DC010020D4010020D801002064
:1034900000B587B00320002180220A4BCDE901321C
:1034A000CDE903104FF6FD700123074A009007484D
:1034B000FFF712FD06AA06A10120FFF76BFD07B07A
:1034C00000BD0000B4210020B02300204D350008CD
:1034D00075432F4F532D494920546D720000000051
:1034E00070B50B46032580F82550012B05D1154EEC
:1034F000C5693668354445610CE085692DB9114EC2
:10350000C56936683544456104E00E4E8569366804
:1035100035444561057D05F007040B4D05EBC401FD
:103520000D682DB908600025C56001258D8006E075
:103530000A680860C26010618D886D1C8D8000254E
:10354000056170BDD0010020B423002008B500BF84
:1035500000BF6A4600211A480068FFF7F5FBFFF735
:103560007DFB18480068401C164908600846007832
:1035700000F00708144800EBC8073C681AE0E6684A
:10358000104960690968884213D1204600F01EF88E
:1035900094F82400022804D101212046FFF7A0FF5F
:1035A00002E0022084F82500656815B12046A16874
:1035B000A8473446002CE2D1FFF770FBC9E70000B2
:1035C000D8010020D0010020B423002030B5057DB3
:1035D00005F007040D4D05EBC4031D68854205D1B8
:1035E000C168196039B100250D6104E00169C26844
:1035F000CA6002B11161012580F825500025C5601F
:1036000005619D886D1E9D8030BD0000B4230020A3
:103610002DE9F04F05460F4690469946A87A19497C
:103620000E5C05F10B00805D11F800B00BEBC600DD
:1036300000F0FF0A144850F82A4000202034E060CF
:103640002760207C20EA0800207484F81190207CF8
:10365000203C00F0080068B994F836000B4909785E
:1036600008430A4908700A48805D94F835100843F9
:10367000074988552946204600F00CF85046BDE819
:10368000F08F0000FD480008CC190020A1010020A7
:10369000A201002010B590F8342001F10B039B5CCF
:1036A00090F83540A34301F10B04A35423469B5CDF
:1036B00023B98B7A90F83640A3438B7210BD00007B
:1036C00010B51B4A1268D061194A126892F834305A
:1036D00000F10B02D25C164B1B6893F835301A438D
:1036E000134B1B6893F8344000F10B031A55827A90
:1036F0000F4B1B6893F836301A4382720C4A1268DB
:1037000092F834100B4A525C094B1B6893F8353021
:103710009A43084B5A541A46525C42B9044A1268FA
:1037200092F83630044A12789A43034B1A7010BD4F
:10373000B0010020A2010020A101002001460022CA
:103740008A72002005E0002301F10B021354421C91
:10375000D0B20828F7D370472DE9F0415021114825
:1037600000F02CF900250DE0681C86B20D4800EB36
:10377000051400EB06170020207067600AA0E060C7
:10378000681C85B2042DEFD3064800EB0514002019
:103790002070606004A0E060024804490860BDE851
:1037A000F08100007C1500203F0000008C0100200B
:1037B00070B54FF48271114800F000F900230FE05A
:1037C000581C85B203EB83000C4901EB800405EB28
:1037D000850001EB8006002020706660581C83B2D3
:1037E0000C2BEDD303EB8300044901EB8004002094
:1037F0002070606008460249086070BD781400209F
:103800008801002000200A4908600A4908700A4916
:1038100008700A4908700A4908700A4908600A498C
:1038200008600A4908600A4908600A490870704738
:10383000C80100209D0100209E010020AB01002056
:10384000AA01002084010020AC0100209801002082
:10385000940100209C01002000210A4A11700020E0
:1038600004E00021084A1154411CC8B20828F8D3CA
:103870000021064A1170064A1170064A1160064A74
:1038800011607047A1010020A20100209F010020CB
:10389000A0010020B8010020B001002070B54FF455
:1038A0007C71194800F08AF84FF48071174800F0D5
:1038B00085F8002413E0601CC5B2C4EBC40000EB23
:1038C0004000114901EB8003C5EBC50000EB40004F
:1038D00001EB80065E610EA0D864601CC4B20B2CA4
:1038E000E9D3C4EBC40000EB4000074901EB8003BF
:1038F0000020586106A0D8640020064908600248EC
:103900000549086070BD0000CC1A0020CC190020C9
:103910003F000000BC010020B401002000B587B0CA
:103920000320002180220A4BCDE90132CDE90310AA
:103930004FF6FF703F23074A00900748FFF7CCFA85
:1039400006AA06A13F20FFF725FB07B000BD000037
:10395000CC170020C8190020F53B000875432F4FF5
:10396000532D49492049646C6500000000B587B0BB
:103970000320002180220A4BCDE90132CDE903105A
:103980004FF6FE703E23074A00900748FFF7A4FA5F
:1039900006AA06A13E20FFF7FDFA07B000BD000011
:1039A000CC150020C81700201D3C000875432F4F80
:1039B000532D4949205374617400000004E0002233
:1039C00000F8012B4A1E91B20029F8D1704700007F
:1039D0002DE9F04178211048FFF7F0FF00240DE0B9
:1039E000601C86B204EB44000B4901EBC00506EBFA
:1039F000460001EBC0072F60601C84B2042CEFD39B
:103A000004EB4400044901EBC0050020286008468F
:103A100002490860BDE8F081BC1E0020C4010020FE
:103A200010B50024FCF7FAFB044613480078F8B9F7
:103A300012480078E0B900F02DF8114811490978D2
:103A400050F82100104908600E4800780F490978A5
:103A500088420DD00C480068806B401C0A490968F8
:103A600088630B480068401C09490860FCF7EEFBBE
:103A70002046FCF7D7FB10BD9D0100209E010020D1
:103A8000CC190020A0010020B80100209F010020D7
:103A9000840100200649074A1278885C0649095CBF
:103AA000034A515C01EBC001044A117070470000E9
:103AB000FD480008A1010020A2010020A001002073
:103AC0002DE9F84F05460F4690469946DDE90AABC9
:103AD00000200090FCF7A2FB00903F480468002CF7
:103AE00074D0183454F8040C3B4908600098FCF773
:103AF00099FB44F8187CA5760020207660766061FA
:103B000044F814BC44F80CAC44F8108C0C9824F81D
:103B1000080C24F8069C0020E077E810207705F0D8
:103B20000700E076217F01208840A077E17E012018
:103B30008840607700206060E060A0602062A06242
:103B40006062E062206325A06063183C002606E006
:103B5000002104F1500040F82610701CC6B2002E5F
:103B6000F6D02046FFF7B6F92046FFF711FAFCF72A
:103B700055FB00901A4840F825401A4800686061DB
:103B80000020A0611748006810B1164800688461E1
:103B9000144804603434A078134909780843124962
:103BA000087020781149085C6178084314F83419CA
:103BB0000E4A50540E480078401C0D490870009879
:103BC000FCF730FB0020BDE8F88FFFE70098FCF71A
:103BD00029FB4220F7E70000B40100203F0000006D
:103BE000CC190020BC010020A1010020A20100206E
:103BF000AB010020002400BF00BFFCF70FFB044610
:103C000005480068401C044908602046FCF70AFB90
:103C1000FFF7BFF9F1E70000AC010020002400BF6E
:103C200002E0C820FFF7DAFA194800780028F8D037
:103C3000184800686421B0FBF1F016490860084696
:103C4000006828B9002014490870FF20FFF770FAB7
:103C500000BFFCF7E3FA044610480068104908600A
:103C600000200E4908602046FCF7DCFA0C4800688A
:103C700008490968B0FBF1F0C0F16400064908701A
:103C8000FFF7C0F900F00EF86420FFF7A7FAE0E7AD
:103C90009C0100209401002090010020AC01002034
:103CA000980100207CB5002514E069462846FFF7FE
:103CB000ABF9064666B9094850F8254044B1012CD5
:103CC00006D0D4E9020100EB810060640198A06491
:103CD000681CC5B23F2DE8D97CBD0000CC1900207E
:103CE00002F0010343B102F002032BB102E0491ECE
:103CF000002308C00029FAD17047000029B1064A04
:103D000052690243044B5A6104E0034A52698243F8
:103D1000014B5A61704700000010024029B1064A69
:103D2000D2690243044BDA6104E0034AD269824358
:103D3000014BDA61704700000010024029B1064AC9
:103D400012690243044B1A6104E0034A1269824378
:103D5000014B1A61704700000010024029B1064A69
:103D600092690243044B9A6104E0034A92698243D8
:103D7000014B9A61704700000010024029B1064AC9
:103D8000D2680243044BDA6004E0034AD2688243FB
:103D9000014BDA60704700000010024030B500218E
:103DA0000022002400232D4D6D6805F00C0121B187
:103DB000042905D0082923D105E0294D056022E01A
:103DC000274D05601FE0254D6D6805F47012234DE9
:103DD0006D6805F48034022505EB92421CB9214D33
:103DE000554305600BE01D4D6D6805F400351DB1B0
:103DF0001C4D5543056002E0194D5543056002E036
:103E0000174D056000BF00BF144D6D6805F0F0014F
:103E10000909154D6B5C0568DD4045600F4D6D6807
:103E200005F4E061090A104D6B5C4568DD40856072
:103E30000A4D6D6805F46051C90A0B4D6B5C45680D
:103E4000DD40C560054D6D6805F44041890B074DA7
:103E50006B5CC568B5FBF3F5056130BD0010024031
:103E600000127A0000093D00E6010020F601002062
:103E7000704710B500F002F810BD00000CB500202E
:103E8000019000903348006840F480303149086068
:103E900000BF3048006800F4003000900198401CDA
:103EA0000190009818B90198B0F5A06FF1D1294898
:103EB000006800F4003010B10120009001E0002003
:103EC00000900098012843D12348006840F010007A
:103ED000214908600846006820F003000860084691
:103EE000006840F0020008601A48406819494860BC
:103EF0000846406848600846406840F48060486072
:103F00000846406820F47C1048600846406840F449
:103F1000E81048600846006840F08070086000BF04
:103F20000C48006800F000700028F9D0094840688B
:103F300020F00300074948600846406840F002004E
:103F4000486000BF0348406800F00C000828F9D121
:103F50000CBD00000010024000200240042808D1DF
:103F60004FF0E021096941F004014FF0E0221161B6
:103F700007E04FF0E021096921F004014FF0E02251
:103F80001161704710B505480078012805D1FEF78A
:103F9000FFFBFFF78FF9FEF70DFC10BDAA01002013
:103FA00010B51348006840F0010011490860084648
:103FB0004068104908400E494860084600680E49AC
:103FC00008400B4908600846006820F4802008601B
:103FD0000846406820F4FE0048604FF41F008860E7
:103FE000FFF747FF4FF000600449086010BD000074
:103FF000001002400000FFF8FFFFF6FE08ED00E0B1
:1040000010B501210F4800F034F8D0B10E480088F7
:1040100040F400400C49088001210A4800F01AF8D9
:104020000020FDF74DFE0948006838B106480088B9
:10403000C0F30D010648054A126890470020024966
:10404000088010BD00080040680100206C010020BD
:10405000B0130020CA430282704721B1028842F0A7
:104060000102028004E002884FF6FE731A400280CB
:10407000704730B50246002000230024158A05EA67
:104080000103958905EA010413B10CB1012000E098
:10409000002030BD1AB183890B43838102E08389FC
:1040A0008B4383817047818470470000002202881F
:1040B0001D4B98420ED01D4B98420BD0B0F1804F53
:1040C00008D01B4B984205D01A4B984202D01A4B8D
:1040D000984204D14FF68F731A404B881A43174BFE
:1040E000984207D0164B984204D04FF6FF431A402F
:1040F000CB881A4302808B8883850B8803850A4B03
:1041000098420BD0094B984208D00E4B984205D0EC
:104110000D4B984202D00D4B984201D10B7A038689
:104120000123838270470000002C014000340140CD
:104130000004004000080040000C00400010004057
:10414000001400400040014000440140004801408C
:1041500070B586B004460E461546012144F20400AF
:10416000FFF7FCFD4FF40070ADF8140003208DF84C
:10417000160018208DF8170005A91C48FCF75FFEF3
:104180004FF48060ADF8140004208DF8170005A9E5
:104190001648FCF754FE25208DF800008DF80160CC
:1041A0008DF8025001208DF803006846FEF784FA6E
:1041B00001940020ADF80800ADF80A00ADF80C003D
:1041C000ADF810000C20ADF80E0001A9084800F071
:1041D0003FF9012240F22551054800F013F9012171
:1041E000034800F081F806B070BD000000080140EF
:1041F0000038014010B5FEF7CBFA40F225511E48B9
:1042000000F0D6F810B31C4800F08EF9C4B21B4879
:10421000008800F40040C8B91848008800F48040C5
:1042200060B10A2C03D000201449088020E0134814
:10423000008840F400401149088019E00D2C06D197
:104240000E48008840F480400C49088010E00B487C
:104250000088C0F30D000A490C5408480088401C2F
:104260000649088008460088C72801DD002008802C
:10427000FEF7A0FA10BD0000003801400402002043
:10428000F423002010B540F22551134800F090F8B7
:1042900000B3114800F048F9C4B210480088C8289B
:1042A00012DA00210E48FFF7FEFE0C48008810B914
:1042B0000120FDF705FD094801880088401C074AD8
:1042C00010800848445405E00448008840F4004049
:1042D0000249088010BD0000004400406801002031
:1042E00000080040B013002021B1828942F400523E
:1042F000828104E082894DF6FF731A408281704703
:104300001AB1838A0B43838202E0838A8B438382C0
:104310007047000010B504462048844209D10121AD
:104320008803FFF72BFD00214FF48040FFF726FDA7
:1043300032E01B48844209D101214804FFF7FEFC0A
:1043400000214FF40030FFF7F9FC25E015488442C6
:1043500009D101218804FFF7F1FC00214FF48020EE
:10436000FFF7ECFC18E01048844209D10121C80491
:10437000FFF7E4FC00214FF40020FFF7DFFC0BE027
:104380000A48844208D101210805FFF7D7FC002123
:104390004FF48010FFF7D2FC10BD00000038014040
:1043A0000044004000480040004C004000500040E5
:1043B00070B50246002400230025002040F66A164E
:1043C000B14200D100BFC1F3421501F01F03012625
:1043D00006FA03F3012D02D19689334006E0022D3F
:1043E00002D1168A334001E0968A33400C1201262E
:1043F00006FA04F41688344013B10CB1012000E031
:10440000002070BDF0B503460024002600250020E2
:1044100040F66A17B94200D100BF1846C1F34214F2
:1044200001F01F06012707FA06F5012C01D10C3017
:1044300004E0022C01D1103000E014301AB10768FA
:104440002F43076002E00768AF430760F0BD00003C
:104450002DE9F04786B005460E460024A24600BF6F
:10446000A1460027B08900B100BF2F462C8A4CF628
:10447000FF700440F08804432C82AC894EF6F310A0
:104480000440B08831890843718908430443AC81F2
:10449000AC8A4FF6FF400440B0890443AC8201A8C7
:1044A000FFF77CFC1F48874202D1DDF810A001E035
:1044B000DDF80CA0A88900F4004040B10AEBCA0066
:1044C00000EB0A1031684900B0FBF1F807E00AEB95
:1044D000CA0000EB0A1031688900B0FBF1F86420D3
:1044E000B8FBF0F004012009642101FB1089A889C0
:1044F00000F4004040B1322000EBC900B0FBF1F005
:1045000000F00700044308E0322000EB09106421AA
:10451000B0FBF1F000F00F0004432C8106B0BDE8C1
:10452000F08700000038014001468888C0F3080089
:104530007047000010B586B00024FBF76FFE0446FC
:1045400001AA00210748FCF7F4FA0748006818B1EF
:1045500001A80549096888472046FBF763FE06B0B5
:1045600010BD0000006400406401002000BFFEE7B1
:1045700030380A2801D2012070470020704700BF60
:104580007047000010B56FF00400FFF7E7FC10481B
:1045900000681049B0FBF1F00F4908700C48006842
:1045A0000C49B0FBF1F44FF47A70444301200B49FD
:1045B00008804FF0E020006940F002004FF0E02159
:1045C000086108464461006940F00100086110BDBF
:1045D0007001002000127A00FA010020FC01002086
:1045E00000BF054A128802F04002002AF9D0C2B288
:1045F000014B1B1D1A8070470038014010B586B072
:104600001124FFF7CDFC4FF4A060FEF78DF8FFF703
:10461000B9FFFDF791FAFEF79BF801200021402237
:10462000084BCDE90043CDE9022104901123054A4E
:10463000FC320548FEF750FCFEF728FC002006B0CF
:1046400010BD0000BC2400204D4600080EB500241B
:1046500000BF0523022200210846FEF7FBFDFBF701
:10466000DDFD0446FCF766FD2046FBF7DBFD64E05C
:1046700001A90B20FEF7C8FC0646DDE90110014444
:1046800064225043B0FBF1F5009531462BA0DDE9E3
:104690000132FBF71FFE01A90A20FEF7B5FC064612
:1046A000DDE90110014464225043B0FBF1F50095AF
:1046B000314630A0DDE90132FBF70CFE01A90720ED
:1046C000FEF7A2FC0646DDE90110014464225043D6
:1046D000B0FBF1F50095314634A0DDE90132FBF77E
:1046E000F9FD01A90820FEF78FFC0646DDE901105F
:1046F000014464225043B0FBF1F50095314638A0E7
:10470000DDE90132FBF7E6FD01A90920FEF77CFC9B
:104710000646DDE90110014464225043B0FBF1F587
:10472000009531463CA0DDE90132FBF7D3FD0023C3
:10473000052219461846FEF78DFD99E7554152545A
:104740005F524541445F5052494F206572722025A7
:10475000642020757365642F667265653A25642F41
:104760002564202075736167653A252525640D0A47
:1047700000000000554152545F50415253455F5074
:1047800052494F206572722025642020757365643C
:104790002F667265653A25642F2564202075736144
:1047A00067653A252525640D0A00000043414E5FE8
:1047B000524541445F5052494F2065727220256432
:1047C0002020757365642F667265653A25642F2510
:1047D00064202075736167653A252525640D0A00FC
:1047E00043414E5F50415253455F5052494F2065FF
:1047F00072722025642020757365642F667265656A
:104800003A25642F2564202075736167653A252554
:1048100025640D0A00000000554152545F53454E77
:10482000445F5052494F20657272202564202075E4
:104830007365642F667265653A25642F25642020B0
:1048400075736167653A252525640D0A000000002F
:104850004A7A5F43616E526561645F5461736B466F
:10486000756E63004A7A5F50617273655573657245
:104870005F44657465637453554D004A7A5F5269AD
:104880006E676275666665725F50757444617461C7
:10489000546F427566666572004A7A5F52696E6748
:1048A0006275666665725F47657462756666657295
:1048B0004865617264617461004A7A5F556172741F
:1048C000526561645F5461736B46756E63004A7A2A
:1048D00043616E456E61626C65004A7A43616E4465
:1048E000697361626C65004A7A5F506572697068CD
:1048F00072616C5F43616E5F496E69740000000114
:104900000002000100030001000200010004000198
:104910000002000100030001000200010005000187
:104920000002000100030001000200010004000178
:104930000002000100030001000200010006000166
:104940000002000100030001000200010004000158
:104950000002000100030001000200010005000147
:104960000002000100030001000200010004000138
:104970000002000100030001000200010007000125
:104980000002000100030001000200010004000118
:104990000002000100030001000200010005000107
:1049A00000020001000300010002000100040001F8
:1049B00000020001000300010002000100060001E6
:1049C00000020001000300010002000100040001D8
:1049D00000020001000300010002000100050001C7
:1049E00000020001000300010002000100040001B8
:1049F000000200010003000100020001003031321A
:104A000033343536373839414243444546403058CF
:104A1000003031323334353637383961626364659A
:104A2000664030780004000008000000000000002C
:104A30000200010000100000584A00080000002099
:104A40000802000028010008AC4A00080802002003
:104A5000182A000084010008817201000930636196
:104A60006E706172736569405944052A72656164AC
:104A700012FF0A12FF0111BB0718600D3275617237
:104A8000749D9A019D2944092C9DC9800C2F736542
:104A90006E3CD17CA24A0454000866020304060757
:0C4AA0000809296E6972E502040608008E
:04000005080001DD11
:00000001FF
